{
  "address": "0xDB26f85Fe3C39B41ce281ec75A71CB0e4dDB8eFd",
  "abi": [
    {
      "inputs": [
        {
          "internalType": "string",
          "name": "baseURI",
          "type": "string"
        }
      ],
      "stateMutability": "nonpayable",
      "type": "constructor"
    },
    {
      "inputs": [],
      "name": "ERC721EnumerableForbiddenBatchMint",
      "type": "error"
    },
    {
      "inputs": [
        {
          "internalType": "address",
          "name": "sender",
          "type": "address"
        },
        {
          "internalType": "uint256",
          "name": "tokenId",
          "type": "uint256"
        },
        {
          "internalType": "address",
          "name": "owner",
          "type": "address"
        }
      ],
      "name": "ERC721IncorrectOwner",
      "type": "error"
    },
    {
      "inputs": [
        {
          "internalType": "address",
          "name": "operator",
          "type": "address"
        },
        {
          "internalType": "uint256",
          "name": "tokenId",
          "type": "uint256"
        }
      ],
      "name": "ERC721InsufficientApproval",
      "type": "error"
    },
    {
      "inputs": [
        {
          "internalType": "address",
          "name": "approver",
          "type": "address"
        }
      ],
      "name": "ERC721InvalidApprover",
      "type": "error"
    },
    {
      "inputs": [
        {
          "internalType": "address",
          "name": "operator",
          "type": "address"
        }
      ],
      "name": "ERC721InvalidOperator",
      "type": "error"
    },
    {
      "inputs": [
        {
          "internalType": "address",
          "name": "owner",
          "type": "address"
        }
      ],
      "name": "ERC721InvalidOwner",
      "type": "error"
    },
    {
      "inputs": [
        {
          "internalType": "address",
          "name": "receiver",
          "type": "address"
        }
      ],
      "name": "ERC721InvalidReceiver",
      "type": "error"
    },
    {
      "inputs": [
        {
          "internalType": "address",
          "name": "sender",
          "type": "address"
        }
      ],
      "name": "ERC721InvalidSender",
      "type": "error"
    },
    {
      "inputs": [
        {
          "internalType": "uint256",
          "name": "tokenId",
          "type": "uint256"
        }
      ],
      "name": "ERC721NonexistentToken",
      "type": "error"
    },
    {
      "inputs": [
        {
          "internalType": "address",
          "name": "owner",
          "type": "address"
        },
        {
          "internalType": "uint256",
          "name": "index",
          "type": "uint256"
        }
      ],
      "name": "ERC721OutOfBoundsIndex",
      "type": "error"
    },
    {
      "inputs": [],
      "name": "EnforcedPause",
      "type": "error"
    },
    {
      "inputs": [],
      "name": "ExpectedPause",
      "type": "error"
    },
    {
      "inputs": [
        {
          "internalType": "address",
          "name": "owner",
          "type": "address"
        }
      ],
      "name": "OwnableInvalidOwner",
      "type": "error"
    },
    {
      "inputs": [
        {
          "internalType": "address",
          "name": "account",
          "type": "address"
        }
      ],
      "name": "OwnableUnauthorizedAccount",
      "type": "error"
    },
    {
      "anonymous": false,
      "inputs": [
        {
          "indexed": true,
          "internalType": "address",
          "name": "owner",
          "type": "address"
        },
        {
          "indexed": true,
          "internalType": "address",
          "name": "approved",
          "type": "address"
        },
        {
          "indexed": true,
          "internalType": "uint256",
          "name": "tokenId",
          "type": "uint256"
        }
      ],
      "name": "Approval",
      "type": "event"
    },
    {
      "anonymous": false,
      "inputs": [
        {
          "indexed": true,
          "internalType": "address",
          "name": "owner",
          "type": "address"
        },
        {
          "indexed": true,
          "internalType": "address",
          "name": "operator",
          "type": "address"
        },
        {
          "indexed": false,
          "internalType": "bool",
          "name": "approved",
          "type": "bool"
        }
      ],
      "name": "ApprovalForAll",
      "type": "event"
    },
    {
      "anonymous": false,
      "inputs": [
        {
          "indexed": false,
          "internalType": "uint256",
          "name": "_fromTokenId",
          "type": "uint256"
        },
        {
          "indexed": false,
          "internalType": "uint256",
          "name": "_toTokenId",
          "type": "uint256"
        }
      ],
      "name": "BatchMetadataUpdate",
      "type": "event"
    },
    {
      "anonymous": false,
      "inputs": [
        {
          "indexed": false,
          "internalType": "uint256",
          "name": "_tokenId",
          "type": "uint256"
        }
      ],
      "name": "MetadataUpdate",
      "type": "event"
    },
    {
      "anonymous": false,
      "inputs": [
        {
          "indexed": true,
          "internalType": "address",
          "name": "previousOwner",
          "type": "address"
        },
        {
          "indexed": true,
          "internalType": "address",
          "name": "newOwner",
          "type": "address"
        }
      ],
      "name": "OwnershipTransferred",
      "type": "event"
    },
    {
      "anonymous": false,
      "inputs": [
        {
          "indexed": false,
          "internalType": "address",
          "name": "account",
          "type": "address"
        }
      ],
      "name": "Paused",
      "type": "event"
    },
    {
      "anonymous": false,
      "inputs": [
        {
          "indexed": true,
          "internalType": "address",
          "name": "from",
          "type": "address"
        },
        {
          "indexed": true,
          "internalType": "address",
          "name": "to",
          "type": "address"
        },
        {
          "indexed": true,
          "internalType": "uint256",
          "name": "tokenId",
          "type": "uint256"
        }
      ],
      "name": "Transfer",
      "type": "event"
    },
    {
      "anonymous": false,
      "inputs": [
        {
          "indexed": false,
          "internalType": "address",
          "name": "account",
          "type": "address"
        }
      ],
      "name": "Unpaused",
      "type": "event"
    },
    {
      "stateMutability": "payable",
      "type": "fallback"
    },
    {
      "inputs": [],
      "name": "_maxSupply",
      "outputs": [
        {
          "internalType": "uint256",
          "name": "",
          "type": "uint256"
        }
      ],
      "stateMutability": "view",
      "type": "function"
    },
    {
      "inputs": [],
      "name": "_price",
      "outputs": [
        {
          "internalType": "uint256",
          "name": "",
          "type": "uint256"
        }
      ],
      "stateMutability": "view",
      "type": "function"
    },
    {
      "inputs": [
        {
          "internalType": "address",
          "name": "to",
          "type": "address"
        },
        {
          "internalType": "uint256",
          "name": "tokenId",
          "type": "uint256"
        }
      ],
      "name": "approve",
      "outputs": [],
      "stateMutability": "nonpayable",
      "type": "function"
    },
    {
      "inputs": [
        {
          "internalType": "address",
          "name": "owner",
          "type": "address"
        }
      ],
      "name": "balanceOf",
      "outputs": [
        {
          "internalType": "uint256",
          "name": "",
          "type": "uint256"
        }
      ],
      "stateMutability": "view",
      "type": "function"
    },
    {
      "inputs": [
        {
          "internalType": "uint256",
          "name": "tokenId",
          "type": "uint256"
        }
      ],
      "name": "burn",
      "outputs": [],
      "stateMutability": "nonpayable",
      "type": "function"
    },
    {
      "inputs": [
        {
          "internalType": "uint256",
          "name": "tokenId",
          "type": "uint256"
        }
      ],
      "name": "getApproved",
      "outputs": [
        {
          "internalType": "address",
          "name": "",
          "type": "address"
        }
      ],
      "stateMutability": "view",
      "type": "function"
    },
    {
      "inputs": [],
      "name": "getBaseTokenURI",
      "outputs": [
        {
          "internalType": "string",
          "name": "",
          "type": "string"
        }
      ],
      "stateMutability": "view",
      "type": "function"
    },
    {
      "inputs": [
        {
          "internalType": "address",
          "name": "owner",
          "type": "address"
        },
        {
          "internalType": "address",
          "name": "operator",
          "type": "address"
        }
      ],
      "name": "isApprovedForAll",
      "outputs": [
        {
          "internalType": "bool",
          "name": "",
          "type": "bool"
        }
      ],
      "stateMutability": "view",
      "type": "function"
    },
    {
      "inputs": [],
      "name": "name",
      "outputs": [
        {
          "internalType": "string",
          "name": "",
          "type": "string"
        }
      ],
      "stateMutability": "view",
      "type": "function"
    },
    {
      "inputs": [],
      "name": "owner",
      "outputs": [
        {
          "internalType": "address",
          "name": "",
          "type": "address"
        }
      ],
      "stateMutability": "view",
      "type": "function"
    },
    {
      "inputs": [
        {
          "internalType": "uint256",
          "name": "tokenId",
          "type": "uint256"
        }
      ],
      "name": "ownerOf",
      "outputs": [
        {
          "internalType": "address",
          "name": "",
          "type": "address"
        }
      ],
      "stateMutability": "view",
      "type": "function"
    },
    {
      "inputs": [],
      "name": "pause",
      "outputs": [],
      "stateMutability": "nonpayable",
      "type": "function"
    },
    {
      "inputs": [],
      "name": "paused",
      "outputs": [
        {
          "internalType": "bool",
          "name": "",
          "type": "bool"
        }
      ],
      "stateMutability": "view",
      "type": "function"
    },
    {
      "inputs": [],
      "name": "renounceOwnership",
      "outputs": [],
      "stateMutability": "nonpayable",
      "type": "function"
    },
    {
      "inputs": [],
      "name": "safeMint",
      "outputs": [
        {
          "internalType": "uint256",
          "name": "",
          "type": "uint256"
        }
      ],
      "stateMutability": "payable",
      "type": "function"
    },
    {
      "inputs": [
        {
          "internalType": "address",
          "name": "from",
          "type": "address"
        },
        {
          "internalType": "address",
          "name": "to",
          "type": "address"
        },
        {
          "internalType": "uint256",
          "name": "tokenId",
          "type": "uint256"
        }
      ],
      "name": "safeTransferFrom",
      "outputs": [],
      "stateMutability": "nonpayable",
      "type": "function"
    },
    {
      "inputs": [
        {
          "internalType": "address",
          "name": "from",
          "type": "address"
        },
        {
          "internalType": "address",
          "name": "to",
          "type": "address"
        },
        {
          "internalType": "uint256",
          "name": "tokenId",
          "type": "uint256"
        },
        {
          "internalType": "bytes",
          "name": "data",
          "type": "bytes"
        }
      ],
      "name": "safeTransferFrom",
      "outputs": [],
      "stateMutability": "nonpayable",
      "type": "function"
    },
    {
      "inputs": [
        {
          "internalType": "address",
          "name": "operator",
          "type": "address"
        },
        {
          "internalType": "bool",
          "name": "approved",
          "type": "bool"
        }
      ],
      "name": "setApprovalForAll",
      "outputs": [],
      "stateMutability": "nonpayable",
      "type": "function"
    },
    {
      "inputs": [
        {
          "internalType": "bytes4",
          "name": "interfaceId",
          "type": "bytes4"
        }
      ],
      "name": "supportsInterface",
      "outputs": [
        {
          "internalType": "bool",
          "name": "",
          "type": "bool"
        }
      ],
      "stateMutability": "view",
      "type": "function"
    },
    {
      "inputs": [],
      "name": "symbol",
      "outputs": [
        {
          "internalType": "string",
          "name": "",
          "type": "string"
        }
      ],
      "stateMutability": "view",
      "type": "function"
    },
    {
      "inputs": [
        {
          "internalType": "uint256",
          "name": "index",
          "type": "uint256"
        }
      ],
      "name": "tokenByIndex",
      "outputs": [
        {
          "internalType": "uint256",
          "name": "",
          "type": "uint256"
        }
      ],
      "stateMutability": "view",
      "type": "function"
    },
    {
      "inputs": [
        {
          "internalType": "address",
          "name": "owner",
          "type": "address"
        },
        {
          "internalType": "uint256",
          "name": "index",
          "type": "uint256"
        }
      ],
      "name": "tokenOfOwnerByIndex",
      "outputs": [
        {
          "internalType": "uint256",
          "name": "",
          "type": "uint256"
        }
      ],
      "stateMutability": "view",
      "type": "function"
    },
    {
      "inputs": [
        {
          "internalType": "uint256",
          "name": "tokenId",
          "type": "uint256"
        }
      ],
      "name": "tokenURI",
      "outputs": [
        {
          "internalType": "string",
          "name": "",
          "type": "string"
        }
      ],
      "stateMutability": "view",
      "type": "function"
    },
    {
      "inputs": [
        {
          "internalType": "address",
          "name": "owner",
          "type": "address"
        }
      ],
      "name": "tokensOfOwner",
      "outputs": [
        {
          "internalType": "uint256[]",
          "name": "",
          "type": "uint256[]"
        }
      ],
      "stateMutability": "view",
      "type": "function"
    },
    {
      "inputs": [],
      "name": "totalSupply",
      "outputs": [
        {
          "internalType": "uint256",
          "name": "",
          "type": "uint256"
        }
      ],
      "stateMutability": "view",
      "type": "function"
    },
    {
      "inputs": [
        {
          "internalType": "address",
          "name": "from",
          "type": "address"
        },
        {
          "internalType": "address",
          "name": "to",
          "type": "address"
        },
        {
          "internalType": "uint256",
          "name": "tokenId",
          "type": "uint256"
        }
      ],
      "name": "transferFrom",
      "outputs": [],
      "stateMutability": "nonpayable",
      "type": "function"
    },
    {
      "inputs": [
        {
          "internalType": "address",
          "name": "newOwner",
          "type": "address"
        }
      ],
      "name": "transferOwnership",
      "outputs": [],
      "stateMutability": "nonpayable",
      "type": "function"
    },
    {
      "inputs": [],
      "name": "unpause",
      "outputs": [],
      "stateMutability": "nonpayable",
      "type": "function"
    },
    {
      "inputs": [],
      "name": "withdraw",
      "outputs": [],
      "stateMutability": "nonpayable",
      "type": "function"
    },
    {
      "stateMutability": "payable",
      "type": "receive"
    }
  ],
  "transactionHash": "0xdbe01aee6c180b023b8db58c9651d791094145881c626d67910b178c559a0899",
  "args": [
    "ipfs://bafybeieobobkdrxjywhkinpsmwskpnmaz4i4polnl7ck6cofrxzb2sqeum"
  ],
  "numDeployments": 1,
  "solcInputHash": "8671fa3af0dece4f665899e95d5ef227",
  "bytecode": "0x60806040526001600d5534801561001557600080fd5b50604051613e44380380613e4483398181016040528101906100379190610399565b336040518060400160405280600781526020017f4d79546f6b656e000000000000000000000000000000000000000000000000008152506040518060400160405280600381526020017f4d544b000000000000000000000000000000000000000000000000000000000081525081600090816100b39190610603565b5080600190816100c39190610603565b505050600073ffffffffffffffffffffffffffffffffffffffff168173ffffffffffffffffffffffffffffffffffffffff16036101385760006040517f1e4fbdf700000000000000000000000000000000000000000000000000000000815260040161012f9190610716565b60405180910390fd5b6101478161015e60201b60201c565b5080600c90816101579190610603565b5050610731565b6000600b60019054906101000a900473ffffffffffffffffffffffffffffffffffffffff16905081600b60016101000a81548173ffffffffffffffffffffffffffffffffffffffff021916908373ffffffffffffffffffffffffffffffffffffffff1602179055508173ffffffffffffffffffffffffffffffffffffffff168173ffffffffffffffffffffffffffffffffffffffff167f8be0079c531659141344cd1fd0a4f28419497f9722a3daafe3b4186f6b6457e060405160405180910390a35050565b6000604051905090565b600080fd5b600080fd5b600080fd5b600080fd5b6000601f19601f8301169050919050565b7f4e487b7100000000000000000000000000000000000000000000000000000000600052604160045260246000fd5b61028b82610242565b810181811067ffffffffffffffff821117156102aa576102a9610253565b5b80604052505050565b60006102bd610224565b90506102c98282610282565b919050565b600067ffffffffffffffff8211156102e9576102e8610253565b5b6102f282610242565b9050602081019050919050565b60005b8381101561031d578082015181840152602081019050610302565b60008484015250505050565b600061033c610337846102ce565b6102b3565b9050828152602081018484840111156103585761035761023d565b5b6103638482856102ff565b509392505050565b600082601f8301126103805761037f610238565b5b8151610390848260208601610329565b91505092915050565b6000602082840312156103af576103ae61022e565b5b600082015167ffffffffffffffff8111156103cd576103cc610233565b5b6103d98482850161036b565b91505092915050565b600081519050919050565b7f4e487b7100000000000000000000000000000000000000000000000000000000600052602260045260246000fd5b6000600282049050600182168061043457607f821691505b602082108103610447576104466103ed565b5b50919050565b60008190508160005260206000209050919050565b60006020601f8301049050919050565b600082821b905092915050565b6000600883026104af7fffffffffffffffffffffffffffffffffffffffffffffffffffffffffffffffff82610472565b6104b98683610472565b95508019841693508086168417925050509392505050565b6000819050919050565b6000819050919050565b60006105006104fb6104f6846104d1565b6104db565b6104d1565b9050919050565b6000819050919050565b61051a836104e5565b61052e61052682610507565b84845461047f565b825550505050565b600090565b610543610536565b61054e818484610511565b505050565b5b818110156105725761056760008261053b565b600181019050610554565b5050565b601f8211156105b7576105888161044d565b61059184610462565b810160208510156105a0578190505b6105b46105ac85610462565b830182610553565b50505b505050565b600082821c905092915050565b60006105da600019846008026105bc565b1980831691505092915050565b60006105f383836105c9565b9150826002028217905092915050565b61060c826103e2565b67ffffffffffffffff81111561062557610624610253565b5b61062f825461041c565b61063a828285610576565b600060209050601f83116001811461066d576000841561065b578287015190505b61066585826105e7565b8655506106cd565b601f19841661067b8661044d565b60005b828110156106a35784890151825560018201915060208501945060208101905061067e565b868310156106c057848901516106bc601f8916826105c9565b8355505b6001600288020188555050505b505050505050565b600073ffffffffffffffffffffffffffffffffffffffff82169050919050565b6000610700826106d5565b9050919050565b610710816106f5565b82525050565b600060208201905061072b6000830184610707565b92915050565b613704806107406000396000f3fe6080604052600436106101c65760003560e01c80635c975abb116100f75780638da5cb5b11610095578063bdc32be011610064578063bdc32be014610611578063c87b56dd1461063c578063e985e9c514610679578063f2fde38b146106b6576101c7565b80638da5cb5b1461056957806395d89b4114610594578063a22cb465146105bf578063b88d4fde146105e8576101c7565b806370a08231116100d157806370a08231146104c1578063715018a6146104fe5780638456cb59146105155780638462151c1461052c576101c7565b80635c975abb1461043b5780636352211e146104665780636871ee40146104a3576101c7565b806323b872dd116101645780633f4ba83a1161013e5780633f4ba83a1461039557806342842e0e146103ac57806342966c68146103d55780634f6ccce7146103fe576101c7565b806323b872dd146103185780632f745c59146103415780633ccfd60b1461037e576101c7565b8063095ea7b3116101a0578063095ea7b31461026e57806318160ddd1461029757806322f4596f146102c2578063235b6ea1146102ed576101c7565b806301ffc9a7146101c957806306fdde0314610206578063081812fc14610231576101c7565b5b005b3480156101d557600080fd5b506101f060048036038101906101eb919061285f565b6106df565b6040516101fd91906128a7565b60405180910390f35b34801561021257600080fd5b5061021b6106f1565b6040516102289190612952565b60405180910390f35b34801561023d57600080fd5b50610258600480360381019061025391906129aa565b610783565b6040516102659190612a18565b60405180910390f35b34801561027a57600080fd5b5061029560048036038101906102909190612a5f565b61079f565b005b3480156102a357600080fd5b506102ac6107b5565b6040516102b99190612aae565b60405180910390f35b3480156102ce57600080fd5b506102d76107c2565b6040516102e49190612aae565b60405180910390f35b3480156102f957600080fd5b506103026107c7565b60405161030f9190612aae565b60405180910390f35b34801561032457600080fd5b5061033f600480360381019061033a9190612ac9565b6107d2565b005b34801561034d57600080fd5b5061036860048036038101906103639190612a5f565b6108d4565b6040516103759190612aae565b60405180910390f35b34801561038a57600080fd5b5061039361097d565b005b3480156103a157600080fd5b506103aa610a47565b005b3480156103b857600080fd5b506103d360048036038101906103ce9190612ac9565b610a59565b005b3480156103e157600080fd5b506103fc60048036038101906103f791906129aa565b610a79565b005b34801561040a57600080fd5b50610425600480360381019061042091906129aa565b610a90565b6040516104329190612aae565b60405180910390f35b34801561044757600080fd5b50610450610b06565b60405161045d91906128a7565b60405180910390f35b34801561047257600080fd5b5061048d600480360381019061048891906129aa565b610b1d565b60405161049a9190612a18565b60405180910390f35b6104ab610b2f565b6040516104b89190612aae565b60405180910390f35b3480156104cd57600080fd5b506104e860048036038101906104e39190612b1c565b610c2f565b6040516104f59190612aae565b60405180910390f35b34801561050a57600080fd5b50610513610ce9565b005b34801561052157600080fd5b5061052a610cfd565b005b34801561053857600080fd5b50610553600480360381019061054e9190612b1c565b610d0f565b6040516105609190612c07565b60405180910390f35b34801561057557600080fd5b5061057e610db7565b60405161058b9190612a18565b60405180910390f35b3480156105a057600080fd5b506105a9610de1565b6040516105b69190612952565b60405180910390f35b3480156105cb57600080fd5b506105e660048036038101906105e19190612c55565b610e73565b005b3480156105f457600080fd5b5061060f600480360381019061060a9190612dca565b610e89565b005b34801561061d57600080fd5b50610626610eae565b6040516106339190612952565b60405180910390f35b34801561064857600080fd5b50610663600480360381019061065e91906129aa565b610f40565b6040516106709190612952565b60405180910390f35b34801561068557600080fd5b506106a0600480360381019061069b9190612e4d565b610f52565b6040516106ad91906128a7565b60405180910390f35b3480156106c257600080fd5b506106dd60048036038101906106d89190612b1c565b610fe6565b005b60006106ea8261106c565b9050919050565b60606000805461070090612ebc565b80601f016020809104026020016040519081016040528092919081815260200182805461072c90612ebc565b80156107795780601f1061074e57610100808354040283529160200191610779565b820191906000526020600020905b81548152906001019060200180831161075c57829003601f168201915b5050505050905090565b600061078e826110cd565b5061079882611155565b9050919050565b6107b182826107ac611192565b61119a565b5050565b6000600880549050905090565b600981565b66038d7ea4c6800081565b600073ffffffffffffffffffffffffffffffffffffffff168273ffffffffffffffffffffffffffffffffffffffff16036108445760006040517f64a0ae9200000000000000000000000000000000000000000000000000000000815260040161083b9190612a18565b60405180910390fd5b60006108588383610853611192565b6111ac565b90508373ffffffffffffffffffffffffffffffffffffffff168173ffffffffffffffffffffffffffffffffffffffff16146108ce578382826040517f64283d7b0000000000000000000000000000000000000000000000000000000081526004016108c593929190612eed565b60405180910390fd5b50505050565b60006108df83610c2f565b82106109245782826040517fa57d13dc00000000000000000000000000000000000000000000000000000000815260040161091b929190612f24565b60405180910390fd5b600660008473ffffffffffffffffffffffffffffffffffffffff1673ffffffffffffffffffffffffffffffffffffffff168152602001908152602001600020600083815260200190815260200160002054905092915050565b6109856111c2565b600061098f610db7565b9050600047905060008273ffffffffffffffffffffffffffffffffffffffff16826040516109bc90612f7e565b60006040518083038185875af1925050503d80600081146109f9576040519150601f19603f3d011682016040523d82523d6000602084013e6109fe565b606091505b5050905080610a42576040517f08c379a0000000000000000000000000000000000000000000000000000000008152600401610a3990612fdf565b60405180910390fd5b505050565b610a4f6111c2565b610a57611249565b565b610a7483838360405180602001604052806000815250610e89565b505050565b610a8c600082610a87611192565b6111ac565b5050565b6000610a9a6107b5565b8210610ae0576000826040517fa57d13dc000000000000000000000000000000000000000000000000000000008152600401610ad7929190612f24565b60405180910390fd5b60088281548110610af457610af3612fff565b5b90600052602060002001549050919050565b6000600b60009054906101000a900460ff16905090565b6000610b28826110cd565b9050919050565b6000610b396112ac565b6009600d541115610b7f576040517f08c379a0000000000000000000000000000000000000000000000000000000008152600401610b769061307a565b60405180910390fd5b66038d7ea4c68000341015610bc9576040517f08c379a0000000000000000000000000000000000000000000000000000000008152600401610bc0906130e6565b60405180910390fd5b6000600d6000815480929190610bde90613135565b919050559050610bee33826112ed565b6000600c610bfb8361130b565b604051602001610c0c92919061329d565b6040516020818303038152906040529050610c2782826113d9565b819250505090565b60008073ffffffffffffffffffffffffffffffffffffffff168273ffffffffffffffffffffffffffffffffffffffff1603610ca25760006040517f89c62b64000000000000000000000000000000000000000000000000000000008152600401610c999190612a18565b60405180910390fd5b600360008373ffffffffffffffffffffffffffffffffffffffff1673ffffffffffffffffffffffffffffffffffffffff168152602001908152602001600020549050919050565b610cf16111c2565b610cfb6000611435565b565b610d056111c2565b610d0d6114fb565b565b60606000610d1c83610c2f565b905060008167ffffffffffffffff811115610d3a57610d39612c9f565b5b604051908082528060200260200182016040528015610d685781602001602082028036833780820191505090505b50905060005b82811015610dac57610d8085826108d4565b828281518110610d9357610d92612fff565b5b6020026020010181815250508080600101915050610d6e565b508092505050919050565b6000600b60019054906101000a900473ffffffffffffffffffffffffffffffffffffffff16905090565b606060018054610df090612ebc565b80601f0160208091040260200160405190810160405280929190818152602001828054610e1c90612ebc565b8015610e695780601f10610e3e57610100808354040283529160200191610e69565b820191906000526020600020905b815481529060010190602001808311610e4c57829003601f168201915b5050505050905090565b610e85610e7e611192565b838361155e565b5050565b610e948484846107d2565b610ea8610e9f611192565b858585856116cd565b50505050565b6060600c8054610ebd90612ebc565b80601f0160208091040260200160405190810160405280929190818152602001828054610ee990612ebc565b8015610f365780601f10610f0b57610100808354040283529160200191610f36565b820191906000526020600020905b815481529060010190602001808311610f1957829003601f168201915b5050505050905090565b6060610f4b8261187e565b9050919050565b6000600560008473ffffffffffffffffffffffffffffffffffffffff1673ffffffffffffffffffffffffffffffffffffffff16815260200190815260200160002060008373ffffffffffffffffffffffffffffffffffffffff1673ffffffffffffffffffffffffffffffffffffffff16815260200190815260200160002060009054906101000a900460ff16905092915050565b610fee6111c2565b600073ffffffffffffffffffffffffffffffffffffffff168173ffffffffffffffffffffffffffffffffffffffff16036110605760006040517f1e4fbdf70000000000000000000000000000000000000000000000000000000081526004016110579190612a18565b60405180910390fd5b61106981611435565b50565b6000634906490660e01b7bffffffffffffffffffffffffffffffffffffffffffffffffffffffff1916827bffffffffffffffffffffffffffffffffffffffffffffffffffffffff191614806110c657506110c582611991565b5b9050919050565b6000806110d983611a0b565b9050600073ffffffffffffffffffffffffffffffffffffffff168173ffffffffffffffffffffffffffffffffffffffff160361114c57826040517f7e2732890000000000000000000000000000000000000000000000000000000081526004016111439190612aae565b60405180910390fd5b80915050919050565b60006004600083815260200190815260200160002060009054906101000a900473ffffffffffffffffffffffffffffffffffffffff169050919050565b600033905090565b6111a78383836001611a48565b505050565b60006111b9848484611c0d565b90509392505050565b6111ca611192565b73ffffffffffffffffffffffffffffffffffffffff166111e8610db7565b73ffffffffffffffffffffffffffffffffffffffff16146112475761120b611192565b6040517f118cdaa700000000000000000000000000000000000000000000000000000000815260040161123e9190612a18565b60405180910390fd5b565b611251611c2b565b6000600b60006101000a81548160ff0219169083151502179055507f5db9ee0a495bf2e6ff9c91a7834c1ba4fdd244a5e8aa4e537bd38aeae4b073aa611295611192565b6040516112a29190612a18565b60405180910390a1565b6112b4610b06565b156112eb576040517fd93c066500000000000000000000000000000000000000000000000000000000815260040160405180910390fd5b565b611307828260405180602001604052806000815250611c6b565b5050565b60606000600161131a84611c8f565b01905060008167ffffffffffffffff81111561133957611338612c9f565b5b6040519080825280601f01601f19166020018201604052801561136b5781602001600182028036833780820191505090505b509050600082602001820190505b6001156113ce578080600190039150507f3031323334353637383961626364656600000000000000000000000000000000600a86061a8153600a85816113c2576113c16132cc565b5b04945060008503611379575b819350505050919050565b80600a600084815260200190815260200160002090816113f99190613492565b507ff8e1a15aba9398e019f0b49df1a4fde98ee17ae345cb5f6b5e2c27f5033e8ce7826040516114299190612aae565b60405180910390a15050565b6000600b60019054906101000a900473ffffffffffffffffffffffffffffffffffffffff16905081600b60016101000a81548173ffffffffffffffffffffffffffffffffffffffff021916908373ffffffffffffffffffffffffffffffffffffffff1602179055508173ffffffffffffffffffffffffffffffffffffffff168173ffffffffffffffffffffffffffffffffffffffff167f8be0079c531659141344cd1fd0a4f28419497f9722a3daafe3b4186f6b6457e060405160405180910390a35050565b6115036112ac565b6001600b60006101000a81548160ff0219169083151502179055507f62e78cea01bee320cd4e420270b5ea74000d11b0c9f74754ebdbfc544b05a258611547611192565b6040516115549190612a18565b60405180910390a1565b600073ffffffffffffffffffffffffffffffffffffffff168273ffffffffffffffffffffffffffffffffffffffff16036115cf57816040517f5b08ba180000000000000000000000000000000000000000000000000000000081526004016115c69190612a18565b60405180910390fd5b80600560008573ffffffffffffffffffffffffffffffffffffffff1673ffffffffffffffffffffffffffffffffffffffff16815260200190815260200160002060008473ffffffffffffffffffffffffffffffffffffffff1673ffffffffffffffffffffffffffffffffffffffff16815260200190815260200160002060006101000a81548160ff0219169083151502179055508173ffffffffffffffffffffffffffffffffffffffff168373ffffffffffffffffffffffffffffffffffffffff167f17307eab39ab6107e8899845ad3d59bd9653f200f220920489ca2b5937696c31836040516116c091906128a7565b60405180910390a3505050565b60008373ffffffffffffffffffffffffffffffffffffffff163b1115611877578273ffffffffffffffffffffffffffffffffffffffff1663150b7a02868685856040518563ffffffff1660e01b815260040161172c94939291906135b9565b6020604051808303816000875af192505050801561176857506040513d601f19601f82011682018060405250810190611765919061361a565b60015b6117ec573d8060008114611798576040519150601f19603f3d011682016040523d82523d6000602084013e61179d565b606091505b5060008151036117e457836040517f64a0ae920000000000000000000000000000000000000000000000000000000081526004016117db9190612a18565b60405180910390fd5b805181602001fd5b63150b7a0260e01b7bffffffffffffffffffffffffffffffffffffffffffffffffffffffff1916817bffffffffffffffffffffffffffffffffffffffffffffffffffffffff19161461187557836040517f64a0ae9200000000000000000000000000000000000000000000000000000000815260040161186c9190612a18565b60405180910390fd5b505b5050505050565b6060611889826110cd565b506000600a600084815260200190815260200160002080546118aa90612ebc565b80601f01602080910402602001604051908101604052809291908181526020018280546118d690612ebc565b80156119235780601f106118f857610100808354040283529160200191611923565b820191906000526020600020905b81548152906001019060200180831161190657829003601f168201915b505050505090506000611934611de2565b9050600081510361194957819250505061198c565b60008251111561197e578082604051602001611966929190613647565b6040516020818303038152906040529250505061198c565b61198784611df9565b925050505b919050565b60007f780e9d63000000000000000000000000000000000000000000000000000000007bffffffffffffffffffffffffffffffffffffffffffffffffffffffff1916827bffffffffffffffffffffffffffffffffffffffffffffffffffffffff19161480611a045750611a0382611e62565b5b9050919050565b60006002600083815260200190815260200160002060009054906101000a900473ffffffffffffffffffffffffffffffffffffffff169050919050565b8080611a815750600073ffffffffffffffffffffffffffffffffffffffff168273ffffffffffffffffffffffffffffffffffffffff1614155b15611bb5576000611a91846110cd565b9050600073ffffffffffffffffffffffffffffffffffffffff168373ffffffffffffffffffffffffffffffffffffffff1614158015611afc57508273ffffffffffffffffffffffffffffffffffffffff168173ffffffffffffffffffffffffffffffffffffffff1614155b8015611b0f5750611b0d8184610f52565b155b15611b5157826040517fa9fbf51f000000000000000000000000000000000000000000000000000000008152600401611b489190612a18565b60405180910390fd5b8115611bb357838573ffffffffffffffffffffffffffffffffffffffff168273ffffffffffffffffffffffffffffffffffffffff167f8c5be1e5ebec7d5bd14f71427d1e84f3dd0314c0f7b2291e5b200ac8c7c3b92560405160405180910390a45b505b836004600085815260200190815260200160002060006101000a81548173ffffffffffffffffffffffffffffffffffffffff021916908373ffffffffffffffffffffffffffffffffffffffff16021790555050505050565b6000611c176112ac565b611c22848484611f44565b90509392505050565b611c33610b06565b611c69576040517f8dfc202b00000000000000000000000000000000000000000000000000000000815260040160405180910390fd5b565b611c758383612061565b611c8a611c80611192565b60008585856116cd565b505050565b600080600090507a184f03e93ff9f4daa797ed6e38ed64bf6a1f0100000000000000008310611ced577a184f03e93ff9f4daa797ed6e38ed64bf6a1f0100000000000000008381611ce357611ce26132cc565b5b0492506040810190505b6d04ee2d6d415b85acef81000000008310611d2a576d04ee2d6d415b85acef81000000008381611d2057611d1f6132cc565b5b0492506020810190505b662386f26fc100008310611d5957662386f26fc100008381611d4f57611d4e6132cc565b5b0492506010810190505b6305f5e1008310611d82576305f5e1008381611d7857611d776132cc565b5b0492506008810190505b6127108310611da7576127108381611d9d57611d9c6132cc565b5b0492506004810190505b60648310611dca5760648381611dc057611dbf6132cc565b5b0492506002810190505b600a8310611dd9576001810190505b80915050919050565b606060405180602001604052806000815250905090565b6060611e04826110cd565b506000611e0f611de2565b90506000815111611e2f5760405180602001604052806000815250611e5a565b80611e398461130b565b604051602001611e4a929190613647565b6040516020818303038152906040525b915050919050565b60007f80ac58cd000000000000000000000000000000000000000000000000000000007bffffffffffffffffffffffffffffffffffffffffffffffffffffffff1916827bffffffffffffffffffffffffffffffffffffffffffffffffffffffff19161480611f2d57507f5b5e139f000000000000000000000000000000000000000000000000000000007bffffffffffffffffffffffffffffffffffffffffffffffffffffffff1916827bffffffffffffffffffffffffffffffffffffffffffffffffffffffff1916145b80611f3d5750611f3c8261215a565b5b9050919050565b600080611f528585856121c4565b9050600073ffffffffffffffffffffffffffffffffffffffff168173ffffffffffffffffffffffffffffffffffffffff1603611f9657611f91846123de565b611fd5565b8473ffffffffffffffffffffffffffffffffffffffff168173ffffffffffffffffffffffffffffffffffffffff1614611fd457611fd38185612427565b5b5b600073ffffffffffffffffffffffffffffffffffffffff168573ffffffffffffffffffffffffffffffffffffffff16036120175761201284612512565b612056565b8473ffffffffffffffffffffffffffffffffffffffff168173ffffffffffffffffffffffffffffffffffffffff16146120555761205485856125e3565b5b5b809150509392505050565b600073ffffffffffffffffffffffffffffffffffffffff168273ffffffffffffffffffffffffffffffffffffffff16036120d35760006040517f64a0ae920000000000000000000000000000000000000000000000000000000081526004016120ca9190612a18565b60405180910390fd5b60006120e1838360006111ac565b9050600073ffffffffffffffffffffffffffffffffffffffff168173ffffffffffffffffffffffffffffffffffffffff16146121555760006040517f73c6ac6e00000000000000000000000000000000000000000000000000000000815260040161214c9190612a18565b60405180910390fd5b505050565b60007f01ffc9a7000000000000000000000000000000000000000000000000000000007bffffffffffffffffffffffffffffffffffffffffffffffffffffffff1916827bffffffffffffffffffffffffffffffffffffffffffffffffffffffff1916149050919050565b6000806121d084611a0b565b9050600073ffffffffffffffffffffffffffffffffffffffff168373ffffffffffffffffffffffffffffffffffffffff16146122125761221181848661266e565b5b600073ffffffffffffffffffffffffffffffffffffffff168173ffffffffffffffffffffffffffffffffffffffff16146122a357612254600085600080611a48565b6001600360008373ffffffffffffffffffffffffffffffffffffffff1673ffffffffffffffffffffffffffffffffffffffff168152602001908152602001600020600082825403925050819055505b600073ffffffffffffffffffffffffffffffffffffffff168573ffffffffffffffffffffffffffffffffffffffff1614612326576001600360008773ffffffffffffffffffffffffffffffffffffffff1673ffffffffffffffffffffffffffffffffffffffff168152602001908152602001600020600082825401925050819055505b846002600086815260200190815260200160002060006101000a81548173ffffffffffffffffffffffffffffffffffffffff021916908373ffffffffffffffffffffffffffffffffffffffff160217905550838573ffffffffffffffffffffffffffffffffffffffff168273ffffffffffffffffffffffffffffffffffffffff167fddf252ad1be2c89b69c2b068fc378daa952ba7f163c4a11628f55a4df523b3ef60405160405180910390a4809150509392505050565b6008805490506009600083815260200190815260200160002081905550600881908060018154018082558091505060019003906000526020600020016000909190919091505550565b600061243283610c2f565b90506000600760008481526020019081526020016000205490506000600660008673ffffffffffffffffffffffffffffffffffffffff1673ffffffffffffffffffffffffffffffffffffffff16815260200190815260200160002090508282146124de5760008160008581526020019081526020016000205490508082600085815260200190815260200160002081905550826007600083815260200190815260200160002081905550505b6007600085815260200190815260200160002060009055806000848152602001908152602001600020600090555050505050565b60006001600880549050612526919061366b565b905060006009600084815260200190815260200160002054905060006008838154811061255657612555612fff565b5b90600052602060002001549050806008838154811061257857612577612fff565b5b9060005260206000200181905550816009600083815260200190815260200160002081905550600960008581526020019081526020016000206000905560088054806125c7576125c661369f565b5b6001900381819060005260206000200160009055905550505050565b600060016125f084610c2f565b6125fa919061366b565b905081600660008573ffffffffffffffffffffffffffffffffffffffff1673ffffffffffffffffffffffffffffffffffffffff168152602001908152602001600020600083815260200190815260200160002081905550806007600084815260200190815260200160002081905550505050565b612679838383612732565b61272d57600073ffffffffffffffffffffffffffffffffffffffff168373ffffffffffffffffffffffffffffffffffffffff16036126ee57806040517f7e2732890000000000000000000000000000000000000000000000000000000081526004016126e59190612aae565b60405180910390fd5b81816040517f177e802f000000000000000000000000000000000000000000000000000000008152600401612724929190612f24565b60405180910390fd5b505050565b60008073ffffffffffffffffffffffffffffffffffffffff168373ffffffffffffffffffffffffffffffffffffffff16141580156127ea57508273ffffffffffffffffffffffffffffffffffffffff168473ffffffffffffffffffffffffffffffffffffffff1614806127ab57506127aa8484610f52565b5b806127e957508273ffffffffffffffffffffffffffffffffffffffff166127d183611155565b73ffffffffffffffffffffffffffffffffffffffff16145b5b90509392505050565b6000604051905090565b600080fd5b600080fd5b60007fffffffff0000000000000000000000000000000000000000000000000000000082169050919050565b61283c81612807565b811461284757600080fd5b50565b60008135905061285981612833565b92915050565b600060208284031215612875576128746127fd565b5b60006128838482850161284a565b91505092915050565b60008115159050919050565b6128a18161288c565b82525050565b60006020820190506128bc6000830184612898565b92915050565b600081519050919050565b600082825260208201905092915050565b60005b838110156128fc5780820151818401526020810190506128e1565b60008484015250505050565b6000601f19601f8301169050919050565b6000612924826128c2565b61292e81856128cd565b935061293e8185602086016128de565b61294781612908565b840191505092915050565b6000602082019050818103600083015261296c8184612919565b905092915050565b6000819050919050565b61298781612974565b811461299257600080fd5b50565b6000813590506129a48161297e565b92915050565b6000602082840312156129c0576129bf6127fd565b5b60006129ce84828501612995565b91505092915050565b600073ffffffffffffffffffffffffffffffffffffffff82169050919050565b6000612a02826129d7565b9050919050565b612a12816129f7565b82525050565b6000602082019050612a2d6000830184612a09565b92915050565b612a3c816129f7565b8114612a4757600080fd5b50565b600081359050612a5981612a33565b92915050565b60008060408385031215612a7657612a756127fd565b5b6000612a8485828601612a4a565b9250506020612a9585828601612995565b9150509250929050565b612aa881612974565b82525050565b6000602082019050612ac36000830184612a9f565b92915050565b600080600060608486031215612ae257612ae16127fd565b5b6000612af086828701612a4a565b9350506020612b0186828701612a4a565b9250506040612b1286828701612995565b9150509250925092565b600060208284031215612b3257612b316127fd565b5b6000612b4084828501612a4a565b91505092915050565b600081519050919050565b600082825260208201905092915050565b6000819050602082019050919050565b612b7e81612974565b82525050565b6000612b908383612b75565b60208301905092915050565b6000602082019050919050565b6000612bb482612b49565b612bbe8185612b54565b9350612bc983612b65565b8060005b83811015612bfa578151612be18882612b84565b9750612bec83612b9c565b925050600181019050612bcd565b5085935050505092915050565b60006020820190508181036000830152612c218184612ba9565b905092915050565b612c328161288c565b8114612c3d57600080fd5b50565b600081359050612c4f81612c29565b92915050565b60008060408385031215612c6c57612c6b6127fd565b5b6000612c7a85828601612a4a565b9250506020612c8b85828601612c40565b9150509250929050565b600080fd5b600080fd5b7f4e487b7100000000000000000000000000000000000000000000000000000000600052604160045260246000fd5b612cd782612908565b810181811067ffffffffffffffff82111715612cf657612cf5612c9f565b5b80604052505050565b6000612d096127f3565b9050612d158282612cce565b919050565b600067ffffffffffffffff821115612d3557612d34612c9f565b5b612d3e82612908565b9050602081019050919050565b82818337600083830152505050565b6000612d6d612d6884612d1a565b612cff565b905082815260208101848484011115612d8957612d88612c9a565b5b612d94848285612d4b565b509392505050565b600082601f830112612db157612db0612c95565b5b8135612dc1848260208601612d5a565b91505092915050565b60008060008060808587031215612de457612de36127fd565b5b6000612df287828801612a4a565b9450506020612e0387828801612a4a565b9350506040612e1487828801612995565b925050606085013567ffffffffffffffff811115612e3557612e34612802565b5b612e4187828801612d9c565b91505092959194509250565b60008060408385031215612e6457612e636127fd565b5b6000612e7285828601612a4a565b9250506020612e8385828601612a4a565b9150509250929050565b7f4e487b7100000000000000000000000000000000000000000000000000000000600052602260045260246000fd5b60006002820490506001821680612ed457607f821691505b602082108103612ee757612ee6612e8d565b5b50919050565b6000606082019050612f026000830186612a09565b612f0f6020830185612a9f565b612f1c6040830184612a09565b949350505050565b6000604082019050612f396000830185612a09565b612f466020830184612a9f565b9392505050565b600081905092915050565b50565b6000612f68600083612f4d565b9150612f7382612f58565b600082019050919050565b6000612f8982612f5b565b9150819050919050565b7f4661696c656420746f2073656e64204574686572000000000000000000000000600082015250565b6000612fc96014836128cd565b9150612fd482612f93565b602082019050919050565b60006020820190508181036000830152612ff881612fbc565b9050919050565b7f4e487b7100000000000000000000000000000000000000000000000000000000600052603260045260246000fd5b7f4d617820737570706c7920726561636865640000000000000000000000000000600082015250565b60006130646012836128cd565b915061306f8261302e565b602082019050919050565b6000602082019050818103600083015261309381613057565b9050919050565b7f496e73756666696369656e742062616c616e6365000000000000000000000000600082015250565b60006130d06014836128cd565b91506130db8261309a565b602082019050919050565b600060208201905081810360008301526130ff816130c3565b9050919050565b7f4e487b7100000000000000000000000000000000000000000000000000000000600052601160045260246000fd5b600061314082612974565b91507fffffffffffffffffffffffffffffffffffffffffffffffffffffffffffffffff820361317257613171613106565b5b600182019050919050565b600081905092915050565b60008190508160005260206000209050919050565b600081546131aa81612ebc565b6131b4818661317d565b945060018216600081146131cf57600181146131e457613217565b60ff1983168652811515820286019350613217565b6131ed85613188565b60005b8381101561320f578154818901526001820191506020810190506131f0565b838801955050505b50505092915050565b600061322b826128c2565b613235818561317d565b93506132458185602086016128de565b80840191505092915050565b7f2e6a736f6e000000000000000000000000000000000000000000000000000000600082015250565b600061328760058361317d565b915061329282613251565b600582019050919050565b60006132a9828561319d565b91506132b58284613220565b91506132c08261327a565b91508190509392505050565b7f4e487b7100000000000000000000000000000000000000000000000000000000600052601260045260246000fd5b60006020601f8301049050919050565b600082821b905092915050565b6000600883026133487fffffffffffffffffffffffffffffffffffffffffffffffffffffffffffffffff8261330b565b613352868361330b565b95508019841693508086168417925050509392505050565b6000819050919050565b600061338f61338a61338584612974565b61336a565b612974565b9050919050565b6000819050919050565b6133a983613374565b6133bd6133b582613396565b848454613318565b825550505050565b600090565b6133d26133c5565b6133dd8184846133a0565b505050565b5b81811015613401576133f66000826133ca565b6001810190506133e3565b5050565b601f8211156134465761341781613188565b613420846132fb565b8101602085101561342f578190505b61344361343b856132fb565b8301826133e2565b50505b505050565b600082821c905092915050565b60006134696000198460080261344b565b1980831691505092915050565b60006134828383613458565b9150826002028217905092915050565b61349b826128c2565b67ffffffffffffffff8111156134b4576134b3612c9f565b5b6134be8254612ebc565b6134c9828285613405565b600060209050601f8311600181146134fc57600084156134ea578287015190505b6134f48582613476565b86555061355c565b601f19841661350a86613188565b60005b828110156135325784890151825560018201915060208501945060208101905061350d565b8683101561354f578489015161354b601f891682613458565b8355505b6001600288020188555050505b505050505050565b600081519050919050565b600082825260208201905092915050565b600061358b82613564565b613595818561356f565b93506135a58185602086016128de565b6135ae81612908565b840191505092915050565b60006080820190506135ce6000830187612a09565b6135db6020830186612a09565b6135e86040830185612a9f565b81810360608301526135fa8184613580565b905095945050505050565b60008151905061361481612833565b92915050565b6000602082840312156136305761362f6127fd565b5b600061363e84828501613605565b91505092915050565b60006136538285613220565b915061365f8284613220565b91508190509392505050565b600061367682612974565b915061368183612974565b925082820390508181111561369957613698613106565b5b92915050565b7f4e487b7100000000000000000000000000000000000000000000000000000000600052603160045260246000fdfea2646970667358221220c169f04c7a1b86ebe0194b260010e82cbecd2dbf21e6a973bbfec045f1ae283964736f6c634300081c0033",
  "devdoc": {
    "errors": {
      "ERC721EnumerableForbiddenBatchMint()": [
        {
          "details": "Batch mint is not allowed."
        }
      ],
      "ERC721IncorrectOwner(address,uint256,address)": [
        {
          "details": "Indicates an error related to the ownership over a particular token. Used in transfers.",
          "params": {
            "owner": "Address of the current owner of a token.",
            "sender": "Address whose tokens are being transferred.",
            "tokenId": "Identifier number of a token."
          }
        }
      ],
      "ERC721InsufficientApproval(address,uint256)": [
        {
          "details": "Indicates a failure with the `operator`s approval. Used in transfers.",
          "params": {
            "operator": "Address that may be allowed to operate on tokens without being their owner.",
            "tokenId": "Identifier number of a token."
          }
        }
      ],
      "ERC721InvalidApprover(address)": [
        {
          "details": "Indicates a failure with the `approver` of a token to be approved. Used in approvals.",
          "params": {
            "approver": "Address initiating an approval operation."
          }
        }
      ],
      "ERC721InvalidOperator(address)": [
        {
          "details": "Indicates a failure with the `operator` to be approved. Used in approvals.",
          "params": {
            "operator": "Address that may be allowed to operate on tokens without being their owner."
          }
        }
      ],
      "ERC721InvalidOwner(address)": [
        {
          "details": "Indicates that an address can't be an owner. For example, `address(0)` is a forbidden owner in ERC-20. Used in balance queries.",
          "params": {
            "owner": "Address of the current owner of a token."
          }
        }
      ],
      "ERC721InvalidReceiver(address)": [
        {
          "details": "Indicates a failure with the token `receiver`. Used in transfers.",
          "params": {
            "receiver": "Address to which tokens are being transferred."
          }
        }
      ],
      "ERC721InvalidSender(address)": [
        {
          "details": "Indicates a failure with the token `sender`. Used in transfers.",
          "params": {
            "sender": "Address whose tokens are being transferred."
          }
        }
      ],
      "ERC721NonexistentToken(uint256)": [
        {
          "details": "Indicates a `tokenId` whose `owner` is the zero address.",
          "params": {
            "tokenId": "Identifier number of a token."
          }
        }
      ],
      "ERC721OutOfBoundsIndex(address,uint256)": [
        {
          "details": "An `owner`'s token query was out of bounds for `index`. NOTE: The owner being `address(0)` indicates a global out of bounds index."
        }
      ],
      "EnforcedPause()": [
        {
          "details": "The operation failed because the contract is paused."
        }
      ],
      "ExpectedPause()": [
        {
          "details": "The operation failed because the contract is not paused."
        }
      ],
      "OwnableInvalidOwner(address)": [
        {
          "details": "The owner is not a valid owner account. (eg. `address(0)`)"
        }
      ],
      "OwnableUnauthorizedAccount(address)": [
        {
          "details": "The caller account is not authorized to perform an operation."
        }
      ]
    },
    "events": {
      "Approval(address,address,uint256)": {
        "details": "Emitted when `owner` enables `approved` to manage the `tokenId` token."
      },
      "ApprovalForAll(address,address,bool)": {
        "details": "Emitted when `owner` enables or disables (`approved`) `operator` to manage all of its assets."
      },
      "BatchMetadataUpdate(uint256,uint256)": {
        "details": "This event emits when the metadata of a range of tokens is changed. So that the third-party platforms such as NFT market could timely update the images and related attributes of the NFTs."
      },
      "MetadataUpdate(uint256)": {
        "details": "This event emits when the metadata of a token is changed. So that the third-party platforms such as NFT market could timely update the images and related attributes of the NFT."
      },
      "Paused(address)": {
        "details": "Emitted when the pause is triggered by `account`."
      },
      "Transfer(address,address,uint256)": {
        "details": "Emitted when `tokenId` token is transferred from `from` to `to`."
      },
      "Unpaused(address)": {
        "details": "Emitted when the pause is lifted by `account`."
      }
    },
    "kind": "dev",
    "methods": {
      "approve(address,uint256)": {
        "details": "See {IERC721-approve}."
      },
      "balanceOf(address)": {
        "details": "See {IERC721-balanceOf}."
      },
      "burn(uint256)": {
        "details": "Burns `tokenId`. See {ERC721-_burn}. Requirements: - The caller must own `tokenId` or be an approved operator."
      },
      "getApproved(uint256)": {
        "details": "See {IERC721-getApproved}."
      },
      "isApprovedForAll(address,address)": {
        "details": "See {IERC721-isApprovedForAll}."
      },
      "name()": {
        "details": "See {IERC721Metadata-name}."
      },
      "owner()": {
        "details": "Returns the address of the current owner."
      },
      "ownerOf(uint256)": {
        "details": "See {IERC721-ownerOf}."
      },
      "paused()": {
        "details": "Returns true if the contract is paused, and false otherwise."
      },
      "renounceOwnership()": {
        "details": "Leaves the contract without owner. It will not be possible to call `onlyOwner` functions. Can only be called by the current owner. NOTE: Renouncing ownership will leave the contract without an owner, thereby disabling any functionality that is only available to the owner."
      },
      "safeMint()": {
        "details": "Safe mint function.",
        "returns": {
          "_0": "The token ID of the minted token."
        }
      },
      "safeTransferFrom(address,address,uint256)": {
        "details": "See {IERC721-safeTransferFrom}."
      },
      "safeTransferFrom(address,address,uint256,bytes)": {
        "details": "See {IERC721-safeTransferFrom}."
      },
      "setApprovalForAll(address,bool)": {
        "details": "See {IERC721-setApprovalForAll}."
      },
      "symbol()": {
        "details": "See {IERC721Metadata-symbol}."
      },
      "tokenByIndex(uint256)": {
        "details": "See {IERC721Enumerable-tokenByIndex}."
      },
      "tokenOfOwnerByIndex(address,uint256)": {
        "details": "See {IERC721Enumerable-tokenOfOwnerByIndex}."
      },
      "tokensOfOwner(address)": {
        "details": "Returns all token IDs of the owner.",
        "params": {
          "owner": "The address of the owner to query."
        },
        "returns": {
          "_0": "An array containing all token IDs of the owner."
        }
      },
      "totalSupply()": {
        "details": "See {IERC721Enumerable-totalSupply}."
      },
      "transferFrom(address,address,uint256)": {
        "details": "See {IERC721-transferFrom}."
      },
      "transferOwnership(address)": {
        "details": "Transfers ownership of the contract to a new account (`newOwner`). Can only be called by the current owner."
      }
    },
    "version": 1
  },
  "userdoc": {
    "kind": "user",
    "methods": {},
    "version": 1
  },
  "storageLayout": {
    "storage": [
      {
        "astId": 349,
        "contract": "contracts/MyToken.sol:MyToken",
        "label": "_name",
        "offset": 0,
        "slot": "0",
        "type": "t_string_storage"
      },
      {
        "astId": 351,
        "contract": "contracts/MyToken.sol:MyToken",
        "label": "_symbol",
        "offset": 0,
        "slot": "1",
        "type": "t_string_storage"
      },
      {
        "astId": 355,
        "contract": "contracts/MyToken.sol:MyToken",
        "label": "_owners",
        "offset": 0,
        "slot": "2",
        "type": "t_mapping(t_uint256,t_address)"
      },
      {
        "astId": 359,
        "contract": "contracts/MyToken.sol:MyToken",
        "label": "_balances",
        "offset": 0,
        "slot": "3",
        "type": "t_mapping(t_address,t_uint256)"
      },
      {
        "astId": 363,
        "contract": "contracts/MyToken.sol:MyToken",
        "label": "_tokenApprovals",
        "offset": 0,
        "slot": "4",
        "type": "t_mapping(t_uint256,t_address)"
      },
      {
        "astId": 369,
        "contract": "contracts/MyToken.sol:MyToken",
        "label": "_operatorApprovals",
        "offset": 0,
        "slot": "5",
        "type": "t_mapping(t_address,t_mapping(t_address,t_bool))"
      },
      {
        "astId": 1456,
        "contract": "contracts/MyToken.sol:MyToken",
        "label": "_ownedTokens",
        "offset": 0,
        "slot": "6",
        "type": "t_mapping(t_address,t_mapping(t_uint256,t_uint256))"
      },
      {
        "astId": 1460,
        "contract": "contracts/MyToken.sol:MyToken",
        "label": "_ownedTokensIndex",
        "offset": 0,
        "slot": "7",
        "type": "t_mapping(t_uint256,t_uint256)"
      },
      {
        "astId": 1463,
        "contract": "contracts/MyToken.sol:MyToken",
        "label": "_allTokens",
        "offset": 0,
        "slot": "8",
        "type": "t_array(t_uint256)dyn_storage"
      },
      {
        "astId": 1467,
        "contract": "contracts/MyToken.sol:MyToken",
        "label": "_allTokensIndex",
        "offset": 0,
        "slot": "9",
        "type": "t_mapping(t_uint256,t_uint256)"
      },
      {
        "astId": 1886,
        "contract": "contracts/MyToken.sol:MyToken",
        "label": "_tokenURIs",
        "offset": 0,
        "slot": "10",
        "type": "t_mapping(t_uint256,t_string_storage)"
      },
      {
        "astId": 2212,
        "contract": "contracts/MyToken.sol:MyToken",
        "label": "_paused",
        "offset": 0,
        "slot": "11",
        "type": "t_bool"
      },
      {
        "astId": 8,
        "contract": "contracts/MyToken.sol:MyToken",
        "label": "_owner",
        "offset": 1,
        "slot": "11",
        "type": "t_address"
      },
      {
        "astId": 7313,
        "contract": "contracts/MyToken.sol:MyToken",
        "label": "_baseTokenURI",
        "offset": 0,
        "slot": "12",
        "type": "t_string_storage"
      },
      {
        "astId": 7316,
        "contract": "contracts/MyToken.sol:MyToken",
        "label": "_nextTokenId",
        "offset": 0,
        "slot": "13",
        "type": "t_uint256"
      }
    ],
    "types": {
      "t_address": {
        "encoding": "inplace",
        "label": "address",
        "numberOfBytes": "20"
      },
      "t_array(t_uint256)dyn_storage": {
        "base": "t_uint256",
        "encoding": "dynamic_array",
        "label": "uint256[]",
        "numberOfBytes": "32"
      },
      "t_bool": {
        "encoding": "inplace",
        "label": "bool",
        "numberOfBytes": "1"
      },
      "t_mapping(t_address,t_bool)": {
        "encoding": "mapping",
        "key": "t_address",
        "label": "mapping(address => bool)",
        "numberOfBytes": "32",
        "value": "t_bool"
      },
      "t_mapping(t_address,t_mapping(t_address,t_bool))": {
        "encoding": "mapping",
        "key": "t_address",
        "label": "mapping(address => mapping(address => bool))",
        "numberOfBytes": "32",
        "value": "t_mapping(t_address,t_bool)"
      },
      "t_mapping(t_address,t_mapping(t_uint256,t_uint256))": {
        "encoding": "mapping",
        "key": "t_address",
        "label": "mapping(address => mapping(uint256 => uint256))",
        "numberOfBytes": "32",
        "value": "t_mapping(t_uint256,t_uint256)"
      },
      "t_mapping(t_address,t_uint256)": {
        "encoding": "mapping",
        "key": "t_address",
        "label": "mapping(address => uint256)",
        "numberOfBytes": "32",
        "value": "t_uint256"
      },
      "t_mapping(t_uint256,t_address)": {
        "encoding": "mapping",
        "key": "t_uint256",
        "label": "mapping(uint256 => address)",
        "numberOfBytes": "32",
        "value": "t_address"
      },
      "t_mapping(t_uint256,t_string_storage)": {
        "encoding": "mapping",
        "key": "t_uint256",
        "label": "mapping(uint256 => string)",
        "numberOfBytes": "32",
        "value": "t_string_storage"
      },
      "t_mapping(t_uint256,t_uint256)": {
        "encoding": "mapping",
        "key": "t_uint256",
        "label": "mapping(uint256 => uint256)",
        "numberOfBytes": "32",
        "value": "t_uint256"
      },
      "t_string_storage": {
        "encoding": "bytes",
        "label": "string",
        "numberOfBytes": "32"
      },
      "t_uint256": {
        "encoding": "inplace",
        "label": "uint256",
        "numberOfBytes": "32"
      }
    }
  }
}