{
  "_format": "hh-sol-artifact-1",
  "contractName": "MyToken",
  "sourceName": "contracts/MyToken.sol",
  "abi": [
    {
      "inputs": [
        {
          "internalType": "string",
          "name": "baseURI",
          "type": "string"
        }
      ],
      "stateMutability": "nonpayable",
      "type": "constructor"
    },
    {
      "inputs": [],
      "name": "ERC721EnumerableForbiddenBatchMint",
      "type": "error"
    },
    {
      "inputs": [
        {
          "internalType": "address",
          "name": "sender",
          "type": "address"
        },
        {
          "internalType": "uint256",
          "name": "tokenId",
          "type": "uint256"
        },
        {
          "internalType": "address",
          "name": "owner",
          "type": "address"
        }
      ],
      "name": "ERC721IncorrectOwner",
      "type": "error"
    },
    {
      "inputs": [
        {
          "internalType": "address",
          "name": "operator",
          "type": "address"
        },
        {
          "internalType": "uint256",
          "name": "tokenId",
          "type": "uint256"
        }
      ],
      "name": "ERC721InsufficientApproval",
      "type": "error"
    },
    {
      "inputs": [
        {
          "internalType": "address",
          "name": "approver",
          "type": "address"
        }
      ],
      "name": "ERC721InvalidApprover",
      "type": "error"
    },
    {
      "inputs": [
        {
          "internalType": "address",
          "name": "operator",
          "type": "address"
        }
      ],
      "name": "ERC721InvalidOperator",
      "type": "error"
    },
    {
      "inputs": [
        {
          "internalType": "address",
          "name": "owner",
          "type": "address"
        }
      ],
      "name": "ERC721InvalidOwner",
      "type": "error"
    },
    {
      "inputs": [
        {
          "internalType": "address",
          "name": "receiver",
          "type": "address"
        }
      ],
      "name": "ERC721InvalidReceiver",
      "type": "error"
    },
    {
      "inputs": [
        {
          "internalType": "address",
          "name": "sender",
          "type": "address"
        }
      ],
      "name": "ERC721InvalidSender",
      "type": "error"
    },
    {
      "inputs": [
        {
          "internalType": "uint256",
          "name": "tokenId",
          "type": "uint256"
        }
      ],
      "name": "ERC721NonexistentToken",
      "type": "error"
    },
    {
      "inputs": [
        {
          "internalType": "address",
          "name": "owner",
          "type": "address"
        },
        {
          "internalType": "uint256",
          "name": "index",
          "type": "uint256"
        }
      ],
      "name": "ERC721OutOfBoundsIndex",
      "type": "error"
    },
    {
      "inputs": [],
      "name": "EnforcedPause",
      "type": "error"
    },
    {
      "inputs": [],
      "name": "ExpectedPause",
      "type": "error"
    },
    {
      "inputs": [
        {
          "internalType": "address",
          "name": "owner",
          "type": "address"
        }
      ],
      "name": "OwnableInvalidOwner",
      "type": "error"
    },
    {
      "inputs": [
        {
          "internalType": "address",
          "name": "account",
          "type": "address"
        }
      ],
      "name": "OwnableUnauthorizedAccount",
      "type": "error"
    },
    {
      "anonymous": false,
      "inputs": [
        {
          "indexed": true,
          "internalType": "address",
          "name": "owner",
          "type": "address"
        },
        {
          "indexed": true,
          "internalType": "address",
          "name": "approved",
          "type": "address"
        },
        {
          "indexed": true,
          "internalType": "uint256",
          "name": "tokenId",
          "type": "uint256"
        }
      ],
      "name": "Approval",
      "type": "event"
    },
    {
      "anonymous": false,
      "inputs": [
        {
          "indexed": true,
          "internalType": "address",
          "name": "owner",
          "type": "address"
        },
        {
          "indexed": true,
          "internalType": "address",
          "name": "operator",
          "type": "address"
        },
        {
          "indexed": false,
          "internalType": "bool",
          "name": "approved",
          "type": "bool"
        }
      ],
      "name": "ApprovalForAll",
      "type": "event"
    },
    {
      "anonymous": false,
      "inputs": [
        {
          "indexed": false,
          "internalType": "uint256",
          "name": "_fromTokenId",
          "type": "uint256"
        },
        {
          "indexed": false,
          "internalType": "uint256",
          "name": "_toTokenId",
          "type": "uint256"
        }
      ],
      "name": "BatchMetadataUpdate",
      "type": "event"
    },
    {
      "anonymous": false,
      "inputs": [
        {
          "indexed": false,
          "internalType": "uint256",
          "name": "_tokenId",
          "type": "uint256"
        }
      ],
      "name": "MetadataUpdate",
      "type": "event"
    },
    {
      "anonymous": false,
      "inputs": [
        {
          "indexed": true,
          "internalType": "address",
          "name": "previousOwner",
          "type": "address"
        },
        {
          "indexed": true,
          "internalType": "address",
          "name": "newOwner",
          "type": "address"
        }
      ],
      "name": "OwnershipTransferred",
      "type": "event"
    },
    {
      "anonymous": false,
      "inputs": [
        {
          "indexed": false,
          "internalType": "address",
          "name": "account",
          "type": "address"
        }
      ],
      "name": "Paused",
      "type": "event"
    },
    {
      "anonymous": false,
      "inputs": [
        {
          "indexed": true,
          "internalType": "address",
          "name": "from",
          "type": "address"
        },
        {
          "indexed": true,
          "internalType": "address",
          "name": "to",
          "type": "address"
        },
        {
          "indexed": true,
          "internalType": "uint256",
          "name": "tokenId",
          "type": "uint256"
        }
      ],
      "name": "Transfer",
      "type": "event"
    },
    {
      "anonymous": false,
      "inputs": [
        {
          "indexed": false,
          "internalType": "address",
          "name": "account",
          "type": "address"
        }
      ],
      "name": "Unpaused",
      "type": "event"
    },
    {
      "inputs": [],
      "name": "_maxSupply",
      "outputs": [
        {
          "internalType": "uint256",
          "name": "",
          "type": "uint256"
        }
      ],
      "stateMutability": "view",
      "type": "function"
    },
    {
      "inputs": [],
      "name": "_price",
      "outputs": [
        {
          "internalType": "uint256",
          "name": "",
          "type": "uint256"
        }
      ],
      "stateMutability": "view",
      "type": "function"
    },
    {
      "inputs": [
        {
          "internalType": "address",
          "name": "to",
          "type": "address"
        },
        {
          "internalType": "uint256",
          "name": "tokenId",
          "type": "uint256"
        }
      ],
      "name": "approve",
      "outputs": [],
      "stateMutability": "nonpayable",
      "type": "function"
    },
    {
      "inputs": [
        {
          "internalType": "address",
          "name": "owner",
          "type": "address"
        }
      ],
      "name": "balanceOf",
      "outputs": [
        {
          "internalType": "uint256",
          "name": "",
          "type": "uint256"
        }
      ],
      "stateMutability": "view",
      "type": "function"
    },
    {
      "inputs": [
        {
          "internalType": "uint256",
          "name": "tokenId",
          "type": "uint256"
        }
      ],
      "name": "burn",
      "outputs": [],
      "stateMutability": "nonpayable",
      "type": "function"
    },
    {
      "inputs": [
        {
          "internalType": "uint256",
          "name": "tokenId",
          "type": "uint256"
        }
      ],
      "name": "getApproved",
      "outputs": [
        {
          "internalType": "address",
          "name": "",
          "type": "address"
        }
      ],
      "stateMutability": "view",
      "type": "function"
    },
    {
      "inputs": [],
      "name": "getBaseTokenURI",
      "outputs": [
        {
          "internalType": "string",
          "name": "",
          "type": "string"
        }
      ],
      "stateMutability": "view",
      "type": "function"
    },
    {
      "inputs": [
        {
          "internalType": "address",
          "name": "owner",
          "type": "address"
        },
        {
          "internalType": "address",
          "name": "operator",
          "type": "address"
        }
      ],
      "name": "isApprovedForAll",
      "outputs": [
        {
          "internalType": "bool",
          "name": "",
          "type": "bool"
        }
      ],
      "stateMutability": "view",
      "type": "function"
    },
    {
      "inputs": [],
      "name": "name",
      "outputs": [
        {
          "internalType": "string",
          "name": "",
          "type": "string"
        }
      ],
      "stateMutability": "view",
      "type": "function"
    },
    {
      "inputs": [],
      "name": "owner",
      "outputs": [
        {
          "internalType": "address",
          "name": "",
          "type": "address"
        }
      ],
      "stateMutability": "view",
      "type": "function"
    },
    {
      "inputs": [
        {
          "internalType": "uint256",
          "name": "tokenId",
          "type": "uint256"
        }
      ],
      "name": "ownerOf",
      "outputs": [
        {
          "internalType": "address",
          "name": "",
          "type": "address"
        }
      ],
      "stateMutability": "view",
      "type": "function"
    },
    {
      "inputs": [],
      "name": "pause",
      "outputs": [],
      "stateMutability": "nonpayable",
      "type": "function"
    },
    {
      "inputs": [],
      "name": "paused",
      "outputs": [
        {
          "internalType": "bool",
          "name": "",
          "type": "bool"
        }
      ],
      "stateMutability": "view",
      "type": "function"
    },
    {
      "inputs": [],
      "name": "renounceOwnership",
      "outputs": [],
      "stateMutability": "nonpayable",
      "type": "function"
    },
    {
      "inputs": [],
      "name": "safeMint",
      "outputs": [
        {
          "internalType": "uint256",
          "name": "",
          "type": "uint256"
        }
      ],
      "stateMutability": "payable",
      "type": "function"
    },
    {
      "inputs": [
        {
          "internalType": "address",
          "name": "from",
          "type": "address"
        },
        {
          "internalType": "address",
          "name": "to",
          "type": "address"
        },
        {
          "internalType": "uint256",
          "name": "tokenId",
          "type": "uint256"
        }
      ],
      "name": "safeTransferFrom",
      "outputs": [],
      "stateMutability": "nonpayable",
      "type": "function"
    },
    {
      "inputs": [
        {
          "internalType": "address",
          "name": "from",
          "type": "address"
        },
        {
          "internalType": "address",
          "name": "to",
          "type": "address"
        },
        {
          "internalType": "uint256",
          "name": "tokenId",
          "type": "uint256"
        },
        {
          "internalType": "bytes",
          "name": "data",
          "type": "bytes"
        }
      ],
      "name": "safeTransferFrom",
      "outputs": [],
      "stateMutability": "nonpayable",
      "type": "function"
    },
    {
      "inputs": [
        {
          "internalType": "address",
          "name": "operator",
          "type": "address"
        },
        {
          "internalType": "bool",
          "name": "approved",
          "type": "bool"
        }
      ],
      "name": "setApprovalForAll",
      "outputs": [],
      "stateMutability": "nonpayable",
      "type": "function"
    },
    {
      "inputs": [
        {
          "internalType": "bytes4",
          "name": "interfaceId",
          "type": "bytes4"
        }
      ],
      "name": "supportsInterface",
      "outputs": [
        {
          "internalType": "bool",
          "name": "",
          "type": "bool"
        }
      ],
      "stateMutability": "view",
      "type": "function"
    },
    {
      "inputs": [],
      "name": "symbol",
      "outputs": [
        {
          "internalType": "string",
          "name": "",
          "type": "string"
        }
      ],
      "stateMutability": "view",
      "type": "function"
    },
    {
      "inputs": [
        {
          "internalType": "uint256",
          "name": "index",
          "type": "uint256"
        }
      ],
      "name": "tokenByIndex",
      "outputs": [
        {
          "internalType": "uint256",
          "name": "",
          "type": "uint256"
        }
      ],
      "stateMutability": "view",
      "type": "function"
    },
    {
      "inputs": [
        {
          "internalType": "address",
          "name": "owner",
          "type": "address"
        },
        {
          "internalType": "uint256",
          "name": "index",
          "type": "uint256"
        }
      ],
      "name": "tokenOfOwnerByIndex",
      "outputs": [
        {
          "internalType": "uint256",
          "name": "",
          "type": "uint256"
        }
      ],
      "stateMutability": "view",
      "type": "function"
    },
    {
      "inputs": [
        {
          "internalType": "uint256",
          "name": "tokenId",
          "type": "uint256"
        }
      ],
      "name": "tokenURI",
      "outputs": [
        {
          "internalType": "string",
          "name": "",
          "type": "string"
        }
      ],
      "stateMutability": "view",
      "type": "function"
    },
    {
      "inputs": [
        {
          "internalType": "address",
          "name": "owner",
          "type": "address"
        }
      ],
      "name": "tokensOfOwner",
      "outputs": [
        {
          "internalType": "uint256[]",
          "name": "",
          "type": "uint256[]"
        }
      ],
      "stateMutability": "view",
      "type": "function"
    },
    {
      "inputs": [],
      "name": "totalSupply",
      "outputs": [
        {
          "internalType": "uint256",
          "name": "",
          "type": "uint256"
        }
      ],
      "stateMutability": "view",
      "type": "function"
    },
    {
      "inputs": [
        {
          "internalType": "address",
          "name": "from",
          "type": "address"
        },
        {
          "internalType": "address",
          "name": "to",
          "type": "address"
        },
        {
          "internalType": "uint256",
          "name": "tokenId",
          "type": "uint256"
        }
      ],
      "name": "transferFrom",
      "outputs": [],
      "stateMutability": "nonpayable",
      "type": "function"
    },
    {
      "inputs": [
        {
          "internalType": "address",
          "name": "newOwner",
          "type": "address"
        }
      ],
      "name": "transferOwnership",
      "outputs": [],
      "stateMutability": "nonpayable",
      "type": "function"
    },
    {
      "inputs": [],
      "name": "unpause",
      "outputs": [],
      "stateMutability": "nonpayable",
      "type": "function"
    },
    {
      "inputs": [],
      "name": "withdraw",
      "outputs": [],
      "stateMutability": "nonpayable",
      "type": "function"
    }
  ],
  "bytecode": "0x60806040526001600d5566038d7ea4c68000600e5534801561002057600080fd5b50604051613e43380380613e43833981810160405281019061004291906103a4565b336040518060400160405280600781526020017f4d79546f6b656e000000000000000000000000000000000000000000000000008152506040518060400160405280600381526020017f4d544b000000000000000000000000000000000000000000000000000000000081525081600090816100be919061060e565b5080600190816100ce919061060e565b505050600073ffffffffffffffffffffffffffffffffffffffff168173ffffffffffffffffffffffffffffffffffffffff16036101435760006040517f1e4fbdf700000000000000000000000000000000000000000000000000000000815260040161013a9190610721565b60405180910390fd5b6101528161016960201b60201c565b5080600c9081610162919061060e565b505061073c565b6000600b60019054906101000a900473ffffffffffffffffffffffffffffffffffffffff16905081600b60016101000a81548173ffffffffffffffffffffffffffffffffffffffff021916908373ffffffffffffffffffffffffffffffffffffffff1602179055508173ffffffffffffffffffffffffffffffffffffffff168173ffffffffffffffffffffffffffffffffffffffff167f8be0079c531659141344cd1fd0a4f28419497f9722a3daafe3b4186f6b6457e060405160405180910390a35050565b6000604051905090565b600080fd5b600080fd5b600080fd5b600080fd5b6000601f19601f8301169050919050565b7f4e487b7100000000000000000000000000000000000000000000000000000000600052604160045260246000fd5b6102968261024d565b810181811067ffffffffffffffff821117156102b5576102b461025e565b5b80604052505050565b60006102c861022f565b90506102d4828261028d565b919050565b600067ffffffffffffffff8211156102f4576102f361025e565b5b6102fd8261024d565b9050602081019050919050565b60005b8381101561032857808201518184015260208101905061030d565b60008484015250505050565b6000610347610342846102d9565b6102be565b90508281526020810184848401111561036357610362610248565b5b61036e84828561030a565b509392505050565b600082601f83011261038b5761038a610243565b5b815161039b848260208601610334565b91505092915050565b6000602082840312156103ba576103b9610239565b5b600082015167ffffffffffffffff8111156103d8576103d761023e565b5b6103e484828501610376565b91505092915050565b600081519050919050565b7f4e487b7100000000000000000000000000000000000000000000000000000000600052602260045260246000fd5b6000600282049050600182168061043f57607f821691505b602082108103610452576104516103f8565b5b50919050565b60008190508160005260206000209050919050565b60006020601f8301049050919050565b600082821b905092915050565b6000600883026104ba7fffffffffffffffffffffffffffffffffffffffffffffffffffffffffffffffff8261047d565b6104c4868361047d565b95508019841693508086168417925050509392505050565b6000819050919050565b6000819050919050565b600061050b610506610501846104dc565b6104e6565b6104dc565b9050919050565b6000819050919050565b610525836104f0565b61053961053182610512565b84845461048a565b825550505050565b600090565b61054e610541565b61055981848461051c565b505050565b5b8181101561057d57610572600082610546565b60018101905061055f565b5050565b601f8211156105c25761059381610458565b61059c8461046d565b810160208510156105ab578190505b6105bf6105b78561046d565b83018261055e565b50505b505050565b600082821c905092915050565b60006105e5600019846008026105c7565b1980831691505092915050565b60006105fe83836105d4565b9150826002028217905092915050565b610617826103ed565b67ffffffffffffffff8111156106305761062f61025e565b5b61063a8254610427565b610645828285610581565b600060209050601f8311600181146106785760008415610666578287015190505b61067085826105f2565b8655506106d8565b601f19841661068686610458565b60005b828110156106ae57848901518255600182019150602085019450602081019050610689565b868310156106cb57848901516106c7601f8916826105d4565b8355505b6001600288020188555050505b505050505050565b600073ffffffffffffffffffffffffffffffffffffffff82169050919050565b600061070b826106e0565b9050919050565b61071b81610700565b82525050565b60006020820190506107366000830184610712565b92915050565b6136f88061074b6000396000f3fe6080604052600436106101c25760003560e01c80635c975abb116100f75780638da5cb5b11610095578063bdc32be011610064578063bdc32be01461060f578063c87b56dd1461063a578063e985e9c514610677578063f2fde38b146106b4576101c2565b80638da5cb5b1461056757806395d89b4114610592578063a22cb465146105bd578063b88d4fde146105e6576101c2565b806370a08231116100d157806370a08231146104bf578063715018a6146104fc5780638456cb59146105135780638462151c1461052a576101c2565b80635c975abb146104395780636352211e146104645780636871ee40146104a1576101c2565b806323b872dd116101645780633f4ba83a1161013e5780633f4ba83a1461039357806342842e0e146103aa57806342966c68146103d35780634f6ccce7146103fc576101c2565b806323b872dd146103165780632f745c591461033f5780633ccfd60b1461037c576101c2565b8063095ea7b3116101a0578063095ea7b31461026c57806318160ddd1461029557806322f4596f146102c0578063235b6ea1146102eb576101c2565b806301ffc9a7146101c757806306fdde0314610204578063081812fc1461022f575b600080fd5b3480156101d357600080fd5b506101ee60048036038101906101e99190612853565b6106dd565b6040516101fb919061289b565b60405180910390f35b34801561021057600080fd5b506102196106ef565b6040516102269190612946565b60405180910390f35b34801561023b57600080fd5b506102566004803603810190610251919061299e565b610781565b6040516102639190612a0c565b60405180910390f35b34801561027857600080fd5b50610293600480360381019061028e9190612a53565b61079d565b005b3480156102a157600080fd5b506102aa6107b3565b6040516102b79190612aa2565b60405180910390f35b3480156102cc57600080fd5b506102d56107c0565b6040516102e29190612aa2565b60405180910390f35b3480156102f757600080fd5b506103006107c5565b60405161030d9190612aa2565b60405180910390f35b34801561032257600080fd5b5061033d60048036038101906103389190612abd565b6107cb565b005b34801561034b57600080fd5b5061036660048036038101906103619190612a53565b6108cd565b6040516103739190612aa2565b60405180910390f35b34801561038857600080fd5b50610391610976565b005b34801561039f57600080fd5b506103a8610a40565b005b3480156103b657600080fd5b506103d160048036038101906103cc9190612abd565b610a52565b005b3480156103df57600080fd5b506103fa60048036038101906103f5919061299e565b610a72565b005b34801561040857600080fd5b50610423600480360381019061041e919061299e565b610a89565b6040516104309190612aa2565b60405180910390f35b34801561044557600080fd5b5061044e610aff565b60405161045b919061289b565b60405180910390f35b34801561047057600080fd5b5061048b6004803603810190610486919061299e565b610b16565b6040516104989190612a0c565b60405180910390f35b6104a9610b28565b6040516104b69190612aa2565b60405180910390f35b3480156104cb57600080fd5b506104e660048036038101906104e19190612b10565b610c23565b6040516104f39190612aa2565b60405180910390f35b34801561050857600080fd5b50610511610cdd565b005b34801561051f57600080fd5b50610528610cf1565b005b34801561053657600080fd5b50610551600480360381019061054c9190612b10565b610d03565b60405161055e9190612bfb565b60405180910390f35b34801561057357600080fd5b5061057c610dab565b6040516105899190612a0c565b60405180910390f35b34801561059e57600080fd5b506105a7610dd5565b6040516105b49190612946565b60405180910390f35b3480156105c957600080fd5b506105e460048036038101906105df9190612c49565b610e67565b005b3480156105f257600080fd5b5061060d60048036038101906106089190612dbe565b610e7d565b005b34801561061b57600080fd5b50610624610ea2565b6040516106319190612946565b60405180910390f35b34801561064657600080fd5b50610661600480360381019061065c919061299e565b610f34565b60405161066e9190612946565b60405180910390f35b34801561068357600080fd5b5061069e60048036038101906106999190612e41565b610f46565b6040516106ab919061289b565b60405180910390f35b3480156106c057600080fd5b506106db60048036038101906106d69190612b10565b610fda565b005b60006106e882611060565b9050919050565b6060600080546106fe90612eb0565b80601f016020809104026020016040519081016040528092919081815260200182805461072a90612eb0565b80156107775780601f1061074c57610100808354040283529160200191610777565b820191906000526020600020905b81548152906001019060200180831161075a57829003601f168201915b5050505050905090565b600061078c826110c1565b5061079682611149565b9050919050565b6107af82826107aa611186565b61118e565b5050565b6000600880549050905090565b600981565b600e5481565b600073ffffffffffffffffffffffffffffffffffffffff168273ffffffffffffffffffffffffffffffffffffffff160361083d5760006040517f64a0ae920000000000000000000000000000000000000000000000000000000081526004016108349190612a0c565b60405180910390fd5b6000610851838361084c611186565b6111a0565b90508373ffffffffffffffffffffffffffffffffffffffff168173ffffffffffffffffffffffffffffffffffffffff16146108c7578382826040517f64283d7b0000000000000000000000000000000000000000000000000000000081526004016108be93929190612ee1565b60405180910390fd5b50505050565b60006108d883610c23565b821061091d5782826040517fa57d13dc000000000000000000000000000000000000000000000000000000008152600401610914929190612f18565b60405180910390fd5b600660008473ffffffffffffffffffffffffffffffffffffffff1673ffffffffffffffffffffffffffffffffffffffff168152602001908152602001600020600083815260200190815260200160002054905092915050565b61097e6111b6565b6000610988610dab565b9050600047905060008273ffffffffffffffffffffffffffffffffffffffff16826040516109b590612f72565b60006040518083038185875af1925050503d80600081146109f2576040519150601f19603f3d011682016040523d82523d6000602084013e6109f7565b606091505b5050905080610a3b576040517f08c379a0000000000000000000000000000000000000000000000000000000008152600401610a3290612fd3565b60405180910390fd5b505050565b610a486111b6565b610a5061123d565b565b610a6d83838360405180602001604052806000815250610e7d565b505050565b610a85600082610a80611186565b6111a0565b5050565b6000610a936107b3565b8210610ad9576000826040517fa57d13dc000000000000000000000000000000000000000000000000000000008152600401610ad0929190612f18565b60405180910390fd5b60088281548110610aed57610aec612ff3565b5b90600052602060002001549050919050565b6000600b60009054906101000a900460ff16905090565b6000610b21826110c1565b9050919050565b6000610b326112a0565b6009600d541115610b78576040517f08c379a0000000000000000000000000000000000000000000000000000000008152600401610b6f9061306e565b60405180910390fd5b600e54341015610bbd576040517f08c379a0000000000000000000000000000000000000000000000000000000008152600401610bb4906130da565b60405180910390fd5b6000600d6000815480929190610bd290613129565b919050559050610be233826112e1565b6000600c610bef836112ff565b604051602001610c00929190613291565b6040516020818303038152906040529050610c1b82826113cd565b819250505090565b60008073ffffffffffffffffffffffffffffffffffffffff168273ffffffffffffffffffffffffffffffffffffffff1603610c965760006040517f89c62b64000000000000000000000000000000000000000000000000000000008152600401610c8d9190612a0c565b60405180910390fd5b600360008373ffffffffffffffffffffffffffffffffffffffff1673ffffffffffffffffffffffffffffffffffffffff168152602001908152602001600020549050919050565b610ce56111b6565b610cef6000611429565b565b610cf96111b6565b610d016114ef565b565b60606000610d1083610c23565b905060008167ffffffffffffffff811115610d2e57610d2d612c93565b5b604051908082528060200260200182016040528015610d5c5781602001602082028036833780820191505090505b50905060005b82811015610da057610d7485826108cd565b828281518110610d8757610d86612ff3565b5b6020026020010181815250508080600101915050610d62565b508092505050919050565b6000600b60019054906101000a900473ffffffffffffffffffffffffffffffffffffffff16905090565b606060018054610de490612eb0565b80601f0160208091040260200160405190810160405280929190818152602001828054610e1090612eb0565b8015610e5d5780601f10610e3257610100808354040283529160200191610e5d565b820191906000526020600020905b815481529060010190602001808311610e4057829003601f168201915b5050505050905090565b610e79610e72611186565b8383611552565b5050565b610e888484846107cb565b610e9c610e93611186565b858585856116c1565b50505050565b6060600c8054610eb190612eb0565b80601f0160208091040260200160405190810160405280929190818152602001828054610edd90612eb0565b8015610f2a5780601f10610eff57610100808354040283529160200191610f2a565b820191906000526020600020905b815481529060010190602001808311610f0d57829003601f168201915b5050505050905090565b6060610f3f82611872565b9050919050565b6000600560008473ffffffffffffffffffffffffffffffffffffffff1673ffffffffffffffffffffffffffffffffffffffff16815260200190815260200160002060008373ffffffffffffffffffffffffffffffffffffffff1673ffffffffffffffffffffffffffffffffffffffff16815260200190815260200160002060009054906101000a900460ff16905092915050565b610fe26111b6565b600073ffffffffffffffffffffffffffffffffffffffff168173ffffffffffffffffffffffffffffffffffffffff16036110545760006040517f1e4fbdf700000000000000000000000000000000000000000000000000000000815260040161104b9190612a0c565b60405180910390fd5b61105d81611429565b50565b6000634906490660e01b7bffffffffffffffffffffffffffffffffffffffffffffffffffffffff1916827bffffffffffffffffffffffffffffffffffffffffffffffffffffffff191614806110ba57506110b982611985565b5b9050919050565b6000806110cd836119ff565b9050600073ffffffffffffffffffffffffffffffffffffffff168173ffffffffffffffffffffffffffffffffffffffff160361114057826040517f7e2732890000000000000000000000000000000000000000000000000000000081526004016111379190612aa2565b60405180910390fd5b80915050919050565b60006004600083815260200190815260200160002060009054906101000a900473ffffffffffffffffffffffffffffffffffffffff169050919050565b600033905090565b61119b8383836001611a3c565b505050565b60006111ad848484611c01565b90509392505050565b6111be611186565b73ffffffffffffffffffffffffffffffffffffffff166111dc610dab565b73ffffffffffffffffffffffffffffffffffffffff161461123b576111ff611186565b6040517f118cdaa70000000000000000000000000000000000000000000000000000000081526004016112329190612a0c565b60405180910390fd5b565b611245611c1f565b6000600b60006101000a81548160ff0219169083151502179055507f5db9ee0a495bf2e6ff9c91a7834c1ba4fdd244a5e8aa4e537bd38aeae4b073aa611289611186565b6040516112969190612a0c565b60405180910390a1565b6112a8610aff565b156112df576040517fd93c066500000000000000000000000000000000000000000000000000000000815260040160405180910390fd5b565b6112fb828260405180602001604052806000815250611c5f565b5050565b60606000600161130e84611c83565b01905060008167ffffffffffffffff81111561132d5761132c612c93565b5b6040519080825280601f01601f19166020018201604052801561135f5781602001600182028036833780820191505090505b509050600082602001820190505b6001156113c2578080600190039150507f3031323334353637383961626364656600000000000000000000000000000000600a86061a8153600a85816113b6576113b56132c0565b5b0494506000850361136d575b819350505050919050565b80600a600084815260200190815260200160002090816113ed9190613486565b507ff8e1a15aba9398e019f0b49df1a4fde98ee17ae345cb5f6b5e2c27f5033e8ce78260405161141d9190612aa2565b60405180910390a15050565b6000600b60019054906101000a900473ffffffffffffffffffffffffffffffffffffffff16905081600b60016101000a81548173ffffffffffffffffffffffffffffffffffffffff021916908373ffffffffffffffffffffffffffffffffffffffff1602179055508173ffffffffffffffffffffffffffffffffffffffff168173ffffffffffffffffffffffffffffffffffffffff167f8be0079c531659141344cd1fd0a4f28419497f9722a3daafe3b4186f6b6457e060405160405180910390a35050565b6114f76112a0565b6001600b60006101000a81548160ff0219169083151502179055507f62e78cea01bee320cd4e420270b5ea74000d11b0c9f74754ebdbfc544b05a25861153b611186565b6040516115489190612a0c565b60405180910390a1565b600073ffffffffffffffffffffffffffffffffffffffff168273ffffffffffffffffffffffffffffffffffffffff16036115c357816040517f5b08ba180000000000000000000000000000000000000000000000000000000081526004016115ba9190612a0c565b60405180910390fd5b80600560008573ffffffffffffffffffffffffffffffffffffffff1673ffffffffffffffffffffffffffffffffffffffff16815260200190815260200160002060008473ffffffffffffffffffffffffffffffffffffffff1673ffffffffffffffffffffffffffffffffffffffff16815260200190815260200160002060006101000a81548160ff0219169083151502179055508173ffffffffffffffffffffffffffffffffffffffff168373ffffffffffffffffffffffffffffffffffffffff167f17307eab39ab6107e8899845ad3d59bd9653f200f220920489ca2b5937696c31836040516116b4919061289b565b60405180910390a3505050565b60008373ffffffffffffffffffffffffffffffffffffffff163b111561186b578273ffffffffffffffffffffffffffffffffffffffff1663150b7a02868685856040518563ffffffff1660e01b815260040161172094939291906135ad565b6020604051808303816000875af192505050801561175c57506040513d601f19601f82011682018060405250810190611759919061360e565b60015b6117e0573d806000811461178c576040519150601f19603f3d011682016040523d82523d6000602084013e611791565b606091505b5060008151036117d857836040517f64a0ae920000000000000000000000000000000000000000000000000000000081526004016117cf9190612a0c565b60405180910390fd5b805181602001fd5b63150b7a0260e01b7bffffffffffffffffffffffffffffffffffffffffffffffffffffffff1916817bffffffffffffffffffffffffffffffffffffffffffffffffffffffff19161461186957836040517f64a0ae920000000000000000000000000000000000000000000000000000000081526004016118609190612a0c565b60405180910390fd5b505b5050505050565b606061187d826110c1565b506000600a6000848152602001908152602001600020805461189e90612eb0565b80601f01602080910402602001604051908101604052809291908181526020018280546118ca90612eb0565b80156119175780601f106118ec57610100808354040283529160200191611917565b820191906000526020600020905b8154815290600101906020018083116118fa57829003601f168201915b505050505090506000611928611dd6565b9050600081510361193d578192505050611980565b60008251111561197257808260405160200161195a92919061363b565b60405160208183030381529060405292505050611980565b61197b84611ded565b925050505b919050565b60007f780e9d63000000000000000000000000000000000000000000000000000000007bffffffffffffffffffffffffffffffffffffffffffffffffffffffff1916827bffffffffffffffffffffffffffffffffffffffffffffffffffffffff191614806119f857506119f782611e56565b5b9050919050565b60006002600083815260200190815260200160002060009054906101000a900473ffffffffffffffffffffffffffffffffffffffff169050919050565b8080611a755750600073ffffffffffffffffffffffffffffffffffffffff168273ffffffffffffffffffffffffffffffffffffffff1614155b15611ba9576000611a85846110c1565b9050600073ffffffffffffffffffffffffffffffffffffffff168373ffffffffffffffffffffffffffffffffffffffff1614158015611af057508273ffffffffffffffffffffffffffffffffffffffff168173ffffffffffffffffffffffffffffffffffffffff1614155b8015611b035750611b018184610f46565b155b15611b4557826040517fa9fbf51f000000000000000000000000000000000000000000000000000000008152600401611b3c9190612a0c565b60405180910390fd5b8115611ba757838573ffffffffffffffffffffffffffffffffffffffff168273ffffffffffffffffffffffffffffffffffffffff167f8c5be1e5ebec7d5bd14f71427d1e84f3dd0314c0f7b2291e5b200ac8c7c3b92560405160405180910390a45b505b836004600085815260200190815260200160002060006101000a81548173ffffffffffffffffffffffffffffffffffffffff021916908373ffffffffffffffffffffffffffffffffffffffff16021790555050505050565b6000611c0b6112a0565b611c16848484611f38565b90509392505050565b611c27610aff565b611c5d576040517f8dfc202b00000000000000000000000000000000000000000000000000000000815260040160405180910390fd5b565b611c698383612055565b611c7e611c74611186565b60008585856116c1565b505050565b600080600090507a184f03e93ff9f4daa797ed6e38ed64bf6a1f0100000000000000008310611ce1577a184f03e93ff9f4daa797ed6e38ed64bf6a1f0100000000000000008381611cd757611cd66132c0565b5b0492506040810190505b6d04ee2d6d415b85acef81000000008310611d1e576d04ee2d6d415b85acef81000000008381611d1457611d136132c0565b5b0492506020810190505b662386f26fc100008310611d4d57662386f26fc100008381611d4357611d426132c0565b5b0492506010810190505b6305f5e1008310611d76576305f5e1008381611d6c57611d6b6132c0565b5b0492506008810190505b6127108310611d9b576127108381611d9157611d906132c0565b5b0492506004810190505b60648310611dbe5760648381611db457611db36132c0565b5b0492506002810190505b600a8310611dcd576001810190505b80915050919050565b606060405180602001604052806000815250905090565b6060611df8826110c1565b506000611e03611dd6565b90506000815111611e235760405180602001604052806000815250611e4e565b80611e2d846112ff565b604051602001611e3e92919061363b565b6040516020818303038152906040525b915050919050565b60007f80ac58cd000000000000000000000000000000000000000000000000000000007bffffffffffffffffffffffffffffffffffffffffffffffffffffffff1916827bffffffffffffffffffffffffffffffffffffffffffffffffffffffff19161480611f2157507f5b5e139f000000000000000000000000000000000000000000000000000000007bffffffffffffffffffffffffffffffffffffffffffffffffffffffff1916827bffffffffffffffffffffffffffffffffffffffffffffffffffffffff1916145b80611f315750611f308261214e565b5b9050919050565b600080611f468585856121b8565b9050600073ffffffffffffffffffffffffffffffffffffffff168173ffffffffffffffffffffffffffffffffffffffff1603611f8a57611f85846123d2565b611fc9565b8473ffffffffffffffffffffffffffffffffffffffff168173ffffffffffffffffffffffffffffffffffffffff1614611fc857611fc7818561241b565b5b5b600073ffffffffffffffffffffffffffffffffffffffff168573ffffffffffffffffffffffffffffffffffffffff160361200b5761200684612506565b61204a565b8473ffffffffffffffffffffffffffffffffffffffff168173ffffffffffffffffffffffffffffffffffffffff16146120495761204885856125d7565b5b5b809150509392505050565b600073ffffffffffffffffffffffffffffffffffffffff168273ffffffffffffffffffffffffffffffffffffffff16036120c75760006040517f64a0ae920000000000000000000000000000000000000000000000000000000081526004016120be9190612a0c565b60405180910390fd5b60006120d5838360006111a0565b9050600073ffffffffffffffffffffffffffffffffffffffff168173ffffffffffffffffffffffffffffffffffffffff16146121495760006040517f73c6ac6e0000000000000000000000000000000000000000000000000000000081526004016121409190612a0c565b60405180910390fd5b505050565b60007f01ffc9a7000000000000000000000000000000000000000000000000000000007bffffffffffffffffffffffffffffffffffffffffffffffffffffffff1916827bffffffffffffffffffffffffffffffffffffffffffffffffffffffff1916149050919050565b6000806121c4846119ff565b9050600073ffffffffffffffffffffffffffffffffffffffff168373ffffffffffffffffffffffffffffffffffffffff161461220657612205818486612662565b5b600073ffffffffffffffffffffffffffffffffffffffff168173ffffffffffffffffffffffffffffffffffffffff161461229757612248600085600080611a3c565b6001600360008373ffffffffffffffffffffffffffffffffffffffff1673ffffffffffffffffffffffffffffffffffffffff168152602001908152602001600020600082825403925050819055505b600073ffffffffffffffffffffffffffffffffffffffff168573ffffffffffffffffffffffffffffffffffffffff161461231a576001600360008773ffffffffffffffffffffffffffffffffffffffff1673ffffffffffffffffffffffffffffffffffffffff168152602001908152602001600020600082825401925050819055505b846002600086815260200190815260200160002060006101000a81548173ffffffffffffffffffffffffffffffffffffffff021916908373ffffffffffffffffffffffffffffffffffffffff160217905550838573ffffffffffffffffffffffffffffffffffffffff168273ffffffffffffffffffffffffffffffffffffffff167fddf252ad1be2c89b69c2b068fc378daa952ba7f163c4a11628f55a4df523b3ef60405160405180910390a4809150509392505050565b6008805490506009600083815260200190815260200160002081905550600881908060018154018082558091505060019003906000526020600020016000909190919091505550565b600061242683610c23565b90506000600760008481526020019081526020016000205490506000600660008673ffffffffffffffffffffffffffffffffffffffff1673ffffffffffffffffffffffffffffffffffffffff16815260200190815260200160002090508282146124d25760008160008581526020019081526020016000205490508082600085815260200190815260200160002081905550826007600083815260200190815260200160002081905550505b6007600085815260200190815260200160002060009055806000848152602001908152602001600020600090555050505050565b6000600160088054905061251a919061365f565b905060006009600084815260200190815260200160002054905060006008838154811061254a57612549612ff3565b5b90600052602060002001549050806008838154811061256c5761256b612ff3565b5b9060005260206000200181905550816009600083815260200190815260200160002081905550600960008581526020019081526020016000206000905560088054806125bb576125ba613693565b5b6001900381819060005260206000200160009055905550505050565b600060016125e484610c23565b6125ee919061365f565b905081600660008573ffffffffffffffffffffffffffffffffffffffff1673ffffffffffffffffffffffffffffffffffffffff168152602001908152602001600020600083815260200190815260200160002081905550806007600084815260200190815260200160002081905550505050565b61266d838383612726565b61272157600073ffffffffffffffffffffffffffffffffffffffff168373ffffffffffffffffffffffffffffffffffffffff16036126e257806040517f7e2732890000000000000000000000000000000000000000000000000000000081526004016126d99190612aa2565b60405180910390fd5b81816040517f177e802f000000000000000000000000000000000000000000000000000000008152600401612718929190612f18565b60405180910390fd5b505050565b60008073ffffffffffffffffffffffffffffffffffffffff168373ffffffffffffffffffffffffffffffffffffffff16141580156127de57508273ffffffffffffffffffffffffffffffffffffffff168473ffffffffffffffffffffffffffffffffffffffff16148061279f575061279e8484610f46565b5b806127dd57508273ffffffffffffffffffffffffffffffffffffffff166127c583611149565b73ffffffffffffffffffffffffffffffffffffffff16145b5b90509392505050565b6000604051905090565b600080fd5b600080fd5b60007fffffffff0000000000000000000000000000000000000000000000000000000082169050919050565b612830816127fb565b811461283b57600080fd5b50565b60008135905061284d81612827565b92915050565b600060208284031215612869576128686127f1565b5b60006128778482850161283e565b91505092915050565b60008115159050919050565b61289581612880565b82525050565b60006020820190506128b0600083018461288c565b92915050565b600081519050919050565b600082825260208201905092915050565b60005b838110156128f05780820151818401526020810190506128d5565b60008484015250505050565b6000601f19601f8301169050919050565b6000612918826128b6565b61292281856128c1565b93506129328185602086016128d2565b61293b816128fc565b840191505092915050565b60006020820190508181036000830152612960818461290d565b905092915050565b6000819050919050565b61297b81612968565b811461298657600080fd5b50565b60008135905061299881612972565b92915050565b6000602082840312156129b4576129b36127f1565b5b60006129c284828501612989565b91505092915050565b600073ffffffffffffffffffffffffffffffffffffffff82169050919050565b60006129f6826129cb565b9050919050565b612a06816129eb565b82525050565b6000602082019050612a2160008301846129fd565b92915050565b612a30816129eb565b8114612a3b57600080fd5b50565b600081359050612a4d81612a27565b92915050565b60008060408385031215612a6a57612a696127f1565b5b6000612a7885828601612a3e565b9250506020612a8985828601612989565b9150509250929050565b612a9c81612968565b82525050565b6000602082019050612ab76000830184612a93565b92915050565b600080600060608486031215612ad657612ad56127f1565b5b6000612ae486828701612a3e565b9350506020612af586828701612a3e565b9250506040612b0686828701612989565b9150509250925092565b600060208284031215612b2657612b256127f1565b5b6000612b3484828501612a3e565b91505092915050565b600081519050919050565b600082825260208201905092915050565b6000819050602082019050919050565b612b7281612968565b82525050565b6000612b848383612b69565b60208301905092915050565b6000602082019050919050565b6000612ba882612b3d565b612bb28185612b48565b9350612bbd83612b59565b8060005b83811015612bee578151612bd58882612b78565b9750612be083612b90565b925050600181019050612bc1565b5085935050505092915050565b60006020820190508181036000830152612c158184612b9d565b905092915050565b612c2681612880565b8114612c3157600080fd5b50565b600081359050612c4381612c1d565b92915050565b60008060408385031215612c6057612c5f6127f1565b5b6000612c6e85828601612a3e565b9250506020612c7f85828601612c34565b9150509250929050565b600080fd5b600080fd5b7f4e487b7100000000000000000000000000000000000000000000000000000000600052604160045260246000fd5b612ccb826128fc565b810181811067ffffffffffffffff82111715612cea57612ce9612c93565b5b80604052505050565b6000612cfd6127e7565b9050612d098282612cc2565b919050565b600067ffffffffffffffff821115612d2957612d28612c93565b5b612d32826128fc565b9050602081019050919050565b82818337600083830152505050565b6000612d61612d5c84612d0e565b612cf3565b905082815260208101848484011115612d7d57612d7c612c8e565b5b612d88848285612d3f565b509392505050565b600082601f830112612da557612da4612c89565b5b8135612db5848260208601612d4e565b91505092915050565b60008060008060808587031215612dd857612dd76127f1565b5b6000612de687828801612a3e565b9450506020612df787828801612a3e565b9350506040612e0887828801612989565b925050606085013567ffffffffffffffff811115612e2957612e286127f6565b5b612e3587828801612d90565b91505092959194509250565b60008060408385031215612e5857612e576127f1565b5b6000612e6685828601612a3e565b9250506020612e7785828601612a3e565b9150509250929050565b7f4e487b7100000000000000000000000000000000000000000000000000000000600052602260045260246000fd5b60006002820490506001821680612ec857607f821691505b602082108103612edb57612eda612e81565b5b50919050565b6000606082019050612ef660008301866129fd565b612f036020830185612a93565b612f1060408301846129fd565b949350505050565b6000604082019050612f2d60008301856129fd565b612f3a6020830184612a93565b9392505050565b600081905092915050565b50565b6000612f5c600083612f41565b9150612f6782612f4c565b600082019050919050565b6000612f7d82612f4f565b9150819050919050565b7f4661696c656420746f2073656e64204574686572000000000000000000000000600082015250565b6000612fbd6014836128c1565b9150612fc882612f87565b602082019050919050565b60006020820190508181036000830152612fec81612fb0565b9050919050565b7f4e487b7100000000000000000000000000000000000000000000000000000000600052603260045260246000fd5b7f4d617820737570706c7920726561636865640000000000000000000000000000600082015250565b60006130586012836128c1565b915061306382613022565b602082019050919050565b600060208201905081810360008301526130878161304b565b9050919050565b7f496e73756666696369656e742062616c616e6365000000000000000000000000600082015250565b60006130c46014836128c1565b91506130cf8261308e565b602082019050919050565b600060208201905081810360008301526130f3816130b7565b9050919050565b7f4e487b7100000000000000000000000000000000000000000000000000000000600052601160045260246000fd5b600061313482612968565b91507fffffffffffffffffffffffffffffffffffffffffffffffffffffffffffffffff8203613166576131656130fa565b5b600182019050919050565b600081905092915050565b60008190508160005260206000209050919050565b6000815461319e81612eb0565b6131a88186613171565b945060018216600081146131c357600181146131d85761320b565b60ff198316865281151582028601935061320b565b6131e18561317c565b60005b83811015613203578154818901526001820191506020810190506131e4565b838801955050505b50505092915050565b600061321f826128b6565b6132298185613171565b93506132398185602086016128d2565b80840191505092915050565b7f2e6a736f6e000000000000000000000000000000000000000000000000000000600082015250565b600061327b600583613171565b915061328682613245565b600582019050919050565b600061329d8285613191565b91506132a98284613214565b91506132b48261326e565b91508190509392505050565b7f4e487b7100000000000000000000000000000000000000000000000000000000600052601260045260246000fd5b60006020601f8301049050919050565b600082821b905092915050565b60006008830261333c7fffffffffffffffffffffffffffffffffffffffffffffffffffffffffffffffff826132ff565b61334686836132ff565b95508019841693508086168417925050509392505050565b6000819050919050565b600061338361337e61337984612968565b61335e565b612968565b9050919050565b6000819050919050565b61339d83613368565b6133b16133a98261338a565b84845461330c565b825550505050565b600090565b6133c66133b9565b6133d1818484613394565b505050565b5b818110156133f5576133ea6000826133be565b6001810190506133d7565b5050565b601f82111561343a5761340b8161317c565b613414846132ef565b81016020851015613423578190505b61343761342f856132ef565b8301826133d6565b50505b505050565b600082821c905092915050565b600061345d6000198460080261343f565b1980831691505092915050565b6000613476838361344c565b9150826002028217905092915050565b61348f826128b6565b67ffffffffffffffff8111156134a8576134a7612c93565b5b6134b28254612eb0565b6134bd8282856133f9565b600060209050601f8311600181146134f057600084156134de578287015190505b6134e8858261346a565b865550613550565b601f1984166134fe8661317c565b60005b8281101561352657848901518255600182019150602085019450602081019050613501565b86831015613543578489015161353f601f89168261344c565b8355505b6001600288020188555050505b505050505050565b600081519050919050565b600082825260208201905092915050565b600061357f82613558565b6135898185613563565b93506135998185602086016128d2565b6135a2816128fc565b840191505092915050565b60006080820190506135c260008301876129fd565b6135cf60208301866129fd565b6135dc6040830185612a93565b81810360608301526135ee8184613574565b905095945050505050565b60008151905061360881612827565b92915050565b600060208284031215613624576136236127f1565b5b6000613632848285016135f9565b91505092915050565b60006136478285613214565b91506136538284613214565b91508190509392505050565b600061366a82612968565b915061367583612968565b925082820390508181111561368d5761368c6130fa565b5b92915050565b7f4e487b7100000000000000000000000000000000000000000000000000000000600052603160045260246000fdfea26469706673582212205a513bd3f6e01f593f9cbb51a136d8f719186b74113a91465a9d78faae1e6c6864736f6c634300081c0033",
  "linkReferences": {},
  "deployedLinkReferences": {}
}