{
  "_format": "hh-sol-artifact-1",
  "contractName": "MyToken",
  "sourceName": "contracts/MyToken.sol",
  "abi": [
    {
      "inputs": [
        {
          "internalType": "string",
          "name": "baseURI",
          "type": "string"
        }
      ],
      "stateMutability": "nonpayable",
      "type": "constructor"
    },
    {
      "inputs": [],
      "name": "ERC721EnumerableForbiddenBatchMint",
      "type": "error"
    },
    {
      "inputs": [
        {
          "internalType": "address",
          "name": "sender",
          "type": "address"
        },
        {
          "internalType": "uint256",
          "name": "tokenId",
          "type": "uint256"
        },
        {
          "internalType": "address",
          "name": "owner",
          "type": "address"
        }
      ],
      "name": "ERC721IncorrectOwner",
      "type": "error"
    },
    {
      "inputs": [
        {
          "internalType": "address",
          "name": "operator",
          "type": "address"
        },
        {
          "internalType": "uint256",
          "name": "tokenId",
          "type": "uint256"
        }
      ],
      "name": "ERC721InsufficientApproval",
      "type": "error"
    },
    {
      "inputs": [
        {
          "internalType": "address",
          "name": "approver",
          "type": "address"
        }
      ],
      "name": "ERC721InvalidApprover",
      "type": "error"
    },
    {
      "inputs": [
        {
          "internalType": "address",
          "name": "operator",
          "type": "address"
        }
      ],
      "name": "ERC721InvalidOperator",
      "type": "error"
    },
    {
      "inputs": [
        {
          "internalType": "address",
          "name": "owner",
          "type": "address"
        }
      ],
      "name": "ERC721InvalidOwner",
      "type": "error"
    },
    {
      "inputs": [
        {
          "internalType": "address",
          "name": "receiver",
          "type": "address"
        }
      ],
      "name": "ERC721InvalidReceiver",
      "type": "error"
    },
    {
      "inputs": [
        {
          "internalType": "address",
          "name": "sender",
          "type": "address"
        }
      ],
      "name": "ERC721InvalidSender",
      "type": "error"
    },
    {
      "inputs": [
        {
          "internalType": "uint256",
          "name": "tokenId",
          "type": "uint256"
        }
      ],
      "name": "ERC721NonexistentToken",
      "type": "error"
    },
    {
      "inputs": [
        {
          "internalType": "address",
          "name": "owner",
          "type": "address"
        },
        {
          "internalType": "uint256",
          "name": "index",
          "type": "uint256"
        }
      ],
      "name": "ERC721OutOfBoundsIndex",
      "type": "error"
    },
    {
      "inputs": [],
      "name": "EnforcedPause",
      "type": "error"
    },
    {
      "inputs": [],
      "name": "ExpectedPause",
      "type": "error"
    },
    {
      "inputs": [
        {
          "internalType": "address",
          "name": "owner",
          "type": "address"
        }
      ],
      "name": "OwnableInvalidOwner",
      "type": "error"
    },
    {
      "inputs": [
        {
          "internalType": "address",
          "name": "account",
          "type": "address"
        }
      ],
      "name": "OwnableUnauthorizedAccount",
      "type": "error"
    },
    {
      "anonymous": false,
      "inputs": [
        {
          "indexed": true,
          "internalType": "address",
          "name": "owner",
          "type": "address"
        },
        {
          "indexed": true,
          "internalType": "address",
          "name": "approved",
          "type": "address"
        },
        {
          "indexed": true,
          "internalType": "uint256",
          "name": "tokenId",
          "type": "uint256"
        }
      ],
      "name": "Approval",
      "type": "event"
    },
    {
      "anonymous": false,
      "inputs": [
        {
          "indexed": true,
          "internalType": "address",
          "name": "owner",
          "type": "address"
        },
        {
          "indexed": true,
          "internalType": "address",
          "name": "operator",
          "type": "address"
        },
        {
          "indexed": false,
          "internalType": "bool",
          "name": "approved",
          "type": "bool"
        }
      ],
      "name": "ApprovalForAll",
      "type": "event"
    },
    {
      "anonymous": false,
      "inputs": [
        {
          "indexed": false,
          "internalType": "uint256",
          "name": "_fromTokenId",
          "type": "uint256"
        },
        {
          "indexed": false,
          "internalType": "uint256",
          "name": "_toTokenId",
          "type": "uint256"
        }
      ],
      "name": "BatchMetadataUpdate",
      "type": "event"
    },
    {
      "anonymous": false,
      "inputs": [
        {
          "indexed": false,
          "internalType": "uint256",
          "name": "_tokenId",
          "type": "uint256"
        }
      ],
      "name": "MetadataUpdate",
      "type": "event"
    },
    {
      "anonymous": false,
      "inputs": [
        {
          "indexed": true,
          "internalType": "address",
          "name": "previousOwner",
          "type": "address"
        },
        {
          "indexed": true,
          "internalType": "address",
          "name": "newOwner",
          "type": "address"
        }
      ],
      "name": "OwnershipTransferred",
      "type": "event"
    },
    {
      "anonymous": false,
      "inputs": [
        {
          "indexed": false,
          "internalType": "address",
          "name": "account",
          "type": "address"
        }
      ],
      "name": "Paused",
      "type": "event"
    },
    {
      "anonymous": false,
      "inputs": [
        {
          "indexed": true,
          "internalType": "address",
          "name": "from",
          "type": "address"
        },
        {
          "indexed": true,
          "internalType": "address",
          "name": "to",
          "type": "address"
        },
        {
          "indexed": true,
          "internalType": "uint256",
          "name": "tokenId",
          "type": "uint256"
        }
      ],
      "name": "Transfer",
      "type": "event"
    },
    {
      "anonymous": false,
      "inputs": [
        {
          "indexed": false,
          "internalType": "address",
          "name": "account",
          "type": "address"
        }
      ],
      "name": "Unpaused",
      "type": "event"
    },
    {
      "inputs": [],
      "name": "_maxSupply",
      "outputs": [
        {
          "internalType": "uint256",
          "name": "",
          "type": "uint256"
        }
      ],
      "stateMutability": "view",
      "type": "function"
    },
    {
      "inputs": [],
      "name": "_price",
      "outputs": [
        {
          "internalType": "uint256",
          "name": "",
          "type": "uint256"
        }
      ],
      "stateMutability": "view",
      "type": "function"
    },
    {
      "inputs": [
        {
          "internalType": "address",
          "name": "to",
          "type": "address"
        },
        {
          "internalType": "uint256",
          "name": "tokenId",
          "type": "uint256"
        }
      ],
      "name": "approve",
      "outputs": [],
      "stateMutability": "nonpayable",
      "type": "function"
    },
    {
      "inputs": [
        {
          "internalType": "address",
          "name": "owner",
          "type": "address"
        }
      ],
      "name": "balanceOf",
      "outputs": [
        {
          "internalType": "uint256",
          "name": "",
          "type": "uint256"
        }
      ],
      "stateMutability": "view",
      "type": "function"
    },
    {
      "inputs": [
        {
          "internalType": "uint256",
          "name": "tokenId",
          "type": "uint256"
        }
      ],
      "name": "burn",
      "outputs": [],
      "stateMutability": "nonpayable",
      "type": "function"
    },
    {
      "inputs": [
        {
          "internalType": "uint256",
          "name": "tokenId",
          "type": "uint256"
        }
      ],
      "name": "getApproved",
      "outputs": [
        {
          "internalType": "address",
          "name": "",
          "type": "address"
        }
      ],
      "stateMutability": "view",
      "type": "function"
    },
    {
      "inputs": [],
      "name": "getBaseTokenURI",
      "outputs": [
        {
          "internalType": "string",
          "name": "",
          "type": "string"
        }
      ],
      "stateMutability": "view",
      "type": "function"
    },
    {
      "inputs": [
        {
          "internalType": "address",
          "name": "spender",
          "type": "address"
        },
        {
          "internalType": "uint256",
          "name": "tokenId",
          "type": "uint256"
        }
      ],
      "name": "hasPermission",
      "outputs": [
        {
          "internalType": "bool",
          "name": "",
          "type": "bool"
        }
      ],
      "stateMutability": "view",
      "type": "function"
    },
    {
      "inputs": [
        {
          "internalType": "address",
          "name": "owner",
          "type": "address"
        },
        {
          "internalType": "address",
          "name": "operator",
          "type": "address"
        }
      ],
      "name": "isApprovedForAll",
      "outputs": [
        {
          "internalType": "bool",
          "name": "",
          "type": "bool"
        }
      ],
      "stateMutability": "view",
      "type": "function"
    },
    {
      "inputs": [],
      "name": "name",
      "outputs": [
        {
          "internalType": "string",
          "name": "",
          "type": "string"
        }
      ],
      "stateMutability": "view",
      "type": "function"
    },
    {
      "inputs": [],
      "name": "owner",
      "outputs": [
        {
          "internalType": "address",
          "name": "",
          "type": "address"
        }
      ],
      "stateMutability": "view",
      "type": "function"
    },
    {
      "inputs": [
        {
          "internalType": "uint256",
          "name": "tokenId",
          "type": "uint256"
        }
      ],
      "name": "ownerOf",
      "outputs": [
        {
          "internalType": "address",
          "name": "",
          "type": "address"
        }
      ],
      "stateMutability": "view",
      "type": "function"
    },
    {
      "inputs": [],
      "name": "pause",
      "outputs": [],
      "stateMutability": "nonpayable",
      "type": "function"
    },
    {
      "inputs": [],
      "name": "paused",
      "outputs": [
        {
          "internalType": "bool",
          "name": "",
          "type": "bool"
        }
      ],
      "stateMutability": "view",
      "type": "function"
    },
    {
      "inputs": [],
      "name": "renounceOwnership",
      "outputs": [],
      "stateMutability": "nonpayable",
      "type": "function"
    },
    {
      "inputs": [],
      "name": "safeMint",
      "outputs": [
        {
          "internalType": "uint256",
          "name": "",
          "type": "uint256"
        }
      ],
      "stateMutability": "payable",
      "type": "function"
    },
    {
      "inputs": [
        {
          "internalType": "address",
          "name": "from",
          "type": "address"
        },
        {
          "internalType": "address",
          "name": "to",
          "type": "address"
        },
        {
          "internalType": "uint256",
          "name": "tokenId",
          "type": "uint256"
        }
      ],
      "name": "safeTransferFrom",
      "outputs": [],
      "stateMutability": "nonpayable",
      "type": "function"
    },
    {
      "inputs": [
        {
          "internalType": "address",
          "name": "from",
          "type": "address"
        },
        {
          "internalType": "address",
          "name": "to",
          "type": "address"
        },
        {
          "internalType": "uint256",
          "name": "tokenId",
          "type": "uint256"
        },
        {
          "internalType": "bytes",
          "name": "data",
          "type": "bytes"
        }
      ],
      "name": "safeTransferFrom",
      "outputs": [],
      "stateMutability": "nonpayable",
      "type": "function"
    },
    {
      "inputs": [
        {
          "internalType": "address",
          "name": "operator",
          "type": "address"
        },
        {
          "internalType": "bool",
          "name": "approved",
          "type": "bool"
        }
      ],
      "name": "setApprovalForAll",
      "outputs": [],
      "stateMutability": "nonpayable",
      "type": "function"
    },
    {
      "inputs": [
        {
          "internalType": "bytes4",
          "name": "interfaceId",
          "type": "bytes4"
        }
      ],
      "name": "supportsInterface",
      "outputs": [
        {
          "internalType": "bool",
          "name": "",
          "type": "bool"
        }
      ],
      "stateMutability": "view",
      "type": "function"
    },
    {
      "inputs": [],
      "name": "symbol",
      "outputs": [
        {
          "internalType": "string",
          "name": "",
          "type": "string"
        }
      ],
      "stateMutability": "view",
      "type": "function"
    },
    {
      "inputs": [
        {
          "internalType": "uint256",
          "name": "index",
          "type": "uint256"
        }
      ],
      "name": "tokenByIndex",
      "outputs": [
        {
          "internalType": "uint256",
          "name": "",
          "type": "uint256"
        }
      ],
      "stateMutability": "view",
      "type": "function"
    },
    {
      "inputs": [
        {
          "internalType": "address",
          "name": "owner",
          "type": "address"
        },
        {
          "internalType": "uint256",
          "name": "index",
          "type": "uint256"
        }
      ],
      "name": "tokenOfOwnerByIndex",
      "outputs": [
        {
          "internalType": "uint256",
          "name": "",
          "type": "uint256"
        }
      ],
      "stateMutability": "view",
      "type": "function"
    },
    {
      "inputs": [
        {
          "internalType": "uint256",
          "name": "tokenId",
          "type": "uint256"
        }
      ],
      "name": "tokenURI",
      "outputs": [
        {
          "internalType": "string",
          "name": "",
          "type": "string"
        }
      ],
      "stateMutability": "view",
      "type": "function"
    },
    {
      "inputs": [
        {
          "internalType": "address",
          "name": "owner",
          "type": "address"
        }
      ],
      "name": "tokensOfOwner",
      "outputs": [
        {
          "internalType": "uint256[]",
          "name": "",
          "type": "uint256[]"
        }
      ],
      "stateMutability": "view",
      "type": "function"
    },
    {
      "inputs": [],
      "name": "totalSupply",
      "outputs": [
        {
          "internalType": "uint256",
          "name": "",
          "type": "uint256"
        }
      ],
      "stateMutability": "view",
      "type": "function"
    },
    {
      "inputs": [
        {
          "internalType": "address",
          "name": "from",
          "type": "address"
        },
        {
          "internalType": "address",
          "name": "to",
          "type": "address"
        },
        {
          "internalType": "uint256",
          "name": "tokenId",
          "type": "uint256"
        }
      ],
      "name": "transferFrom",
      "outputs": [],
      "stateMutability": "nonpayable",
      "type": "function"
    },
    {
      "inputs": [
        {
          "internalType": "address",
          "name": "newOwner",
          "type": "address"
        }
      ],
      "name": "transferOwnership",
      "outputs": [],
      "stateMutability": "nonpayable",
      "type": "function"
    },
    {
      "inputs": [],
      "name": "unpause",
      "outputs": [],
      "stateMutability": "nonpayable",
      "type": "function"
    },
    {
      "inputs": [],
      "name": "withdraw",
      "outputs": [],
      "stateMutability": "nonpayable",
      "type": "function"
    }
  ],
  "bytecode": "0x60806040526001600d5534801561001557600080fd5b50604051613f1f380380613f1f83398181016040528101906100379190610399565b336040518060400160405280600781526020017f4d79546f6b656e000000000000000000000000000000000000000000000000008152506040518060400160405280600381526020017f4d544b000000000000000000000000000000000000000000000000000000000081525081600090816100b39190610603565b5080600190816100c39190610603565b505050600073ffffffffffffffffffffffffffffffffffffffff168173ffffffffffffffffffffffffffffffffffffffff16036101385760006040517f1e4fbdf700000000000000000000000000000000000000000000000000000000815260040161012f9190610716565b60405180910390fd5b6101478161015e60201b60201c565b5080600c90816101579190610603565b5050610731565b6000600b60019054906101000a900473ffffffffffffffffffffffffffffffffffffffff16905081600b60016101000a81548173ffffffffffffffffffffffffffffffffffffffff021916908373ffffffffffffffffffffffffffffffffffffffff1602179055508173ffffffffffffffffffffffffffffffffffffffff168173ffffffffffffffffffffffffffffffffffffffff167f8be0079c531659141344cd1fd0a4f28419497f9722a3daafe3b4186f6b6457e060405160405180910390a35050565b6000604051905090565b600080fd5b600080fd5b600080fd5b600080fd5b6000601f19601f8301169050919050565b7f4e487b7100000000000000000000000000000000000000000000000000000000600052604160045260246000fd5b61028b82610242565b810181811067ffffffffffffffff821117156102aa576102a9610253565b5b80604052505050565b60006102bd610224565b90506102c98282610282565b919050565b600067ffffffffffffffff8211156102e9576102e8610253565b5b6102f282610242565b9050602081019050919050565b60005b8381101561031d578082015181840152602081019050610302565b60008484015250505050565b600061033c610337846102ce565b6102b3565b9050828152602081018484840111156103585761035761023d565b5b6103638482856102ff565b509392505050565b600082601f8301126103805761037f610238565b5b8151610390848260208601610329565b91505092915050565b6000602082840312156103af576103ae61022e565b5b600082015167ffffffffffffffff8111156103cd576103cc610233565b5b6103d98482850161036b565b91505092915050565b600081519050919050565b7f4e487b7100000000000000000000000000000000000000000000000000000000600052602260045260246000fd5b6000600282049050600182168061043457607f821691505b602082108103610447576104466103ed565b5b50919050565b60008190508160005260206000209050919050565b60006020601f8301049050919050565b600082821b905092915050565b6000600883026104af7fffffffffffffffffffffffffffffffffffffffffffffffffffffffffffffffff82610472565b6104b98683610472565b95508019841693508086168417925050509392505050565b6000819050919050565b6000819050919050565b60006105006104fb6104f6846104d1565b6104db565b6104d1565b9050919050565b6000819050919050565b61051a836104e5565b61052e61052682610507565b84845461047f565b825550505050565b600090565b610543610536565b61054e818484610511565b505050565b5b818110156105725761056760008261053b565b600181019050610554565b5050565b601f8211156105b7576105888161044d565b61059184610462565b810160208510156105a0578190505b6105b46105ac85610462565b830182610553565b50505b505050565b600082821c905092915050565b60006105da600019846008026105bc565b1980831691505092915050565b60006105f383836105c9565b9150826002028217905092915050565b61060c826103e2565b67ffffffffffffffff81111561062557610624610253565b5b61062f825461041c565b61063a828285610576565b600060209050601f83116001811461066d576000841561065b578287015190505b61066585826105e7565b8655506106cd565b601f19841661067b8661044d565b60005b828110156106a35784890151825560018201915060208501945060208101905061067e565b868310156106c057848901516106bc601f8916826105c9565b8355505b6001600288020188555050505b505050505050565b600073ffffffffffffffffffffffffffffffffffffffff82169050919050565b6000610700826106d5565b9050919050565b610710816106f5565b82525050565b600060208201905061072b6000830184610707565b92915050565b6137df806107406000396000f3fe6080604052600436106101cd5760003560e01c80636352211e116100f75780638da5cb5b11610095578063bdc32be011610064578063bdc32be014610657578063c87b56dd14610682578063e985e9c5146106bf578063f2fde38b146106fc576101cd565b80638da5cb5b146105af57806395d89b41146105da578063a22cb46514610605578063b88d4fde1461062e576101cd565b8063715018a6116100d1578063715018a6146105075780638456cb591461051e5780638462151c146105355780638d944fd914610572576101cd565b80636352211e1461046f5780636871ee40146104ac57806370a08231146104ca576101cd565b806323b872dd1161016f57806342842e0e1161013e57806342842e0e146103b557806342966c68146103de5780634f6ccce7146104075780635c975abb14610444576101cd565b806323b872dd146103215780632f745c591461034a5780633ccfd60b146103875780633f4ba83a1461039e576101cd565b8063095ea7b3116101ab578063095ea7b31461027757806318160ddd146102a057806322f4596f146102cb578063235b6ea1146102f6576101cd565b806301ffc9a7146101d257806306fdde031461020f578063081812fc1461023a575b600080fd5b3480156101de57600080fd5b506101f960048036038101906101f4919061293a565b610725565b6040516102069190612982565b60405180910390f35b34801561021b57600080fd5b50610224610737565b6040516102319190612a2d565b60405180910390f35b34801561024657600080fd5b50610261600480360381019061025c9190612a85565b6107c9565b60405161026e9190612af3565b60405180910390f35b34801561028357600080fd5b5061029e60048036038101906102999190612b3a565b6107e5565b005b3480156102ac57600080fd5b506102b56107fb565b6040516102c29190612b89565b60405180910390f35b3480156102d757600080fd5b506102e0610808565b6040516102ed9190612b89565b60405180910390f35b34801561030257600080fd5b5061030b61080d565b6040516103189190612b89565b60405180910390f35b34801561032d57600080fd5b5061034860048036038101906103439190612ba4565b610818565b005b34801561035657600080fd5b50610371600480360381019061036c9190612b3a565b61091a565b60405161037e9190612b89565b60405180910390f35b34801561039357600080fd5b5061039c6109c3565b005b3480156103aa57600080fd5b506103b3610a8d565b005b3480156103c157600080fd5b506103dc60048036038101906103d79190612ba4565b610a9f565b005b3480156103ea57600080fd5b5061040560048036038101906104009190612a85565b610abf565b005b34801561041357600080fd5b5061042e60048036038101906104299190612a85565b610ad6565b60405161043b9190612b89565b60405180910390f35b34801561045057600080fd5b50610459610b4c565b6040516104669190612982565b60405180910390f35b34801561047b57600080fd5b5061049660048036038101906104919190612a85565b610b63565b6040516104a39190612af3565b60405180910390f35b6104b4610b75565b6040516104c19190612b89565b60405180910390f35b3480156104d657600080fd5b506104f160048036038101906104ec9190612bf7565b610c75565b6040516104fe9190612b89565b60405180910390f35b34801561051357600080fd5b5061051c610d2f565b005b34801561052a57600080fd5b50610533610d43565b005b34801561054157600080fd5b5061055c60048036038101906105579190612bf7565b610d55565b6040516105699190612ce2565b60405180910390f35b34801561057e57600080fd5b5061059960048036038101906105949190612b3a565b610dfd565b6040516105a69190612982565b60405180910390f35b3480156105bb57600080fd5b506105c4610e92565b6040516105d19190612af3565b60405180910390f35b3480156105e657600080fd5b506105ef610ebc565b6040516105fc9190612a2d565b60405180910390f35b34801561061157600080fd5b5061062c60048036038101906106279190612d30565b610f4e565b005b34801561063a57600080fd5b5061065560048036038101906106509190612ea5565b610f64565b005b34801561066357600080fd5b5061066c610f89565b6040516106799190612a2d565b60405180910390f35b34801561068e57600080fd5b506106a960048036038101906106a49190612a85565b61101b565b6040516106b69190612a2d565b60405180910390f35b3480156106cb57600080fd5b506106e660048036038101906106e19190612f28565b61102d565b6040516106f39190612982565b60405180910390f35b34801561070857600080fd5b50610723600480360381019061071e9190612bf7565b6110c1565b005b600061073082611147565b9050919050565b60606000805461074690612f97565b80601f016020809104026020016040519081016040528092919081815260200182805461077290612f97565b80156107bf5780601f10610794576101008083540402835291602001916107bf565b820191906000526020600020905b8154815290600101906020018083116107a257829003601f168201915b5050505050905090565b60006107d4826111a8565b506107de82611230565b9050919050565b6107f782826107f261126d565b611275565b5050565b6000600880549050905090565b600981565b66038d7ea4c6800081565b600073ffffffffffffffffffffffffffffffffffffffff168273ffffffffffffffffffffffffffffffffffffffff160361088a5760006040517f64a0ae920000000000000000000000000000000000000000000000000000000081526004016108819190612af3565b60405180910390fd5b600061089e838361089961126d565b611287565b90508373ffffffffffffffffffffffffffffffffffffffff168173ffffffffffffffffffffffffffffffffffffffff1614610914578382826040517f64283d7b00000000000000000000000000000000000000000000000000000000815260040161090b93929190612fc8565b60405180910390fd5b50505050565b600061092583610c75565b821061096a5782826040517fa57d13dc000000000000000000000000000000000000000000000000000000008152600401610961929190612fff565b60405180910390fd5b600660008473ffffffffffffffffffffffffffffffffffffffff1673ffffffffffffffffffffffffffffffffffffffff168152602001908152602001600020600083815260200190815260200160002054905092915050565b6109cb61129d565b60006109d5610e92565b9050600047905060008273ffffffffffffffffffffffffffffffffffffffff1682604051610a0290613059565b60006040518083038185875af1925050503d8060008114610a3f576040519150601f19603f3d011682016040523d82523d6000602084013e610a44565b606091505b5050905080610a88576040517f08c379a0000000000000000000000000000000000000000000000000000000008152600401610a7f906130ba565b60405180910390fd5b505050565b610a9561129d565b610a9d611324565b565b610aba83838360405180602001604052806000815250610f64565b505050565b610ad2600082610acd61126d565b611287565b5050565b6000610ae06107fb565b8210610b26576000826040517fa57d13dc000000000000000000000000000000000000000000000000000000008152600401610b1d929190612fff565b60405180910390fd5b60088281548110610b3a57610b396130da565b5b90600052602060002001549050919050565b6000600b60009054906101000a900460ff16905090565b6000610b6e826111a8565b9050919050565b6000610b7f611387565b6009600d541115610bc5576040517f08c379a0000000000000000000000000000000000000000000000000000000008152600401610bbc90613155565b60405180910390fd5b66038d7ea4c68000341015610c0f576040517f08c379a0000000000000000000000000000000000000000000000000000000008152600401610c06906131c1565b60405180910390fd5b6000600d6000815480929190610c2490613210565b919050559050610c3433826113c8565b6000600c610c41836113e6565b604051602001610c52929190613378565b6040516020818303038152906040529050610c6d82826114b4565b819250505090565b60008073ffffffffffffffffffffffffffffffffffffffff168273ffffffffffffffffffffffffffffffffffffffff1603610ce85760006040517f89c62b64000000000000000000000000000000000000000000000000000000008152600401610cdf9190612af3565b60405180910390fd5b600360008373ffffffffffffffffffffffffffffffffffffffff1673ffffffffffffffffffffffffffffffffffffffff168152602001908152602001600020549050919050565b610d3761129d565b610d416000611510565b565b610d4b61129d565b610d536115d6565b565b60606000610d6283610c75565b905060008167ffffffffffffffff811115610d8057610d7f612d7a565b5b604051908082528060200260200182016040528015610dae5781602001602082028036833780820191505090505b50905060005b82811015610df257610dc6858261091a565b828281518110610dd957610dd86130da565b5b6020026020010181815250508080600101915050610db4565b508092505050919050565b600080610e0983610b63565b90508073ffffffffffffffffffffffffffffffffffffffff168473ffffffffffffffffffffffffffffffffffffffff161480610e4b5750610e4a818561102d565b5b80610e8957508373ffffffffffffffffffffffffffffffffffffffff16610e71846107c9565b73ffffffffffffffffffffffffffffffffffffffff16145b91505092915050565b6000600b60019054906101000a900473ffffffffffffffffffffffffffffffffffffffff16905090565b606060018054610ecb90612f97565b80601f0160208091040260200160405190810160405280929190818152602001828054610ef790612f97565b8015610f445780601f10610f1957610100808354040283529160200191610f44565b820191906000526020600020905b815481529060010190602001808311610f2757829003601f168201915b5050505050905090565b610f60610f5961126d565b8383611639565b5050565b610f6f848484610818565b610f83610f7a61126d565b858585856117a8565b50505050565b6060600c8054610f9890612f97565b80601f0160208091040260200160405190810160405280929190818152602001828054610fc490612f97565b80156110115780601f10610fe657610100808354040283529160200191611011565b820191906000526020600020905b815481529060010190602001808311610ff457829003601f168201915b5050505050905090565b606061102682611959565b9050919050565b6000600560008473ffffffffffffffffffffffffffffffffffffffff1673ffffffffffffffffffffffffffffffffffffffff16815260200190815260200160002060008373ffffffffffffffffffffffffffffffffffffffff1673ffffffffffffffffffffffffffffffffffffffff16815260200190815260200160002060009054906101000a900460ff16905092915050565b6110c961129d565b600073ffffffffffffffffffffffffffffffffffffffff168173ffffffffffffffffffffffffffffffffffffffff160361113b5760006040517f1e4fbdf70000000000000000000000000000000000000000000000000000000081526004016111329190612af3565b60405180910390fd5b61114481611510565b50565b6000634906490660e01b7bffffffffffffffffffffffffffffffffffffffffffffffffffffffff1916827bffffffffffffffffffffffffffffffffffffffffffffffffffffffff191614806111a157506111a082611a6c565b5b9050919050565b6000806111b483611ae6565b9050600073ffffffffffffffffffffffffffffffffffffffff168173ffffffffffffffffffffffffffffffffffffffff160361122757826040517f7e27328900000000000000000000000000000000000000000000000000000000815260040161121e9190612b89565b60405180910390fd5b80915050919050565b60006004600083815260200190815260200160002060009054906101000a900473ffffffffffffffffffffffffffffffffffffffff169050919050565b600033905090565b6112828383836001611b23565b505050565b6000611294848484611ce8565b90509392505050565b6112a561126d565b73ffffffffffffffffffffffffffffffffffffffff166112c3610e92565b73ffffffffffffffffffffffffffffffffffffffff1614611322576112e661126d565b6040517f118cdaa70000000000000000000000000000000000000000000000000000000081526004016113199190612af3565b60405180910390fd5b565b61132c611d06565b6000600b60006101000a81548160ff0219169083151502179055507f5db9ee0a495bf2e6ff9c91a7834c1ba4fdd244a5e8aa4e537bd38aeae4b073aa61137061126d565b60405161137d9190612af3565b60405180910390a1565b61138f610b4c565b156113c6576040517fd93c066500000000000000000000000000000000000000000000000000000000815260040160405180910390fd5b565b6113e2828260405180602001604052806000815250611d46565b5050565b6060600060016113f584611d6a565b01905060008167ffffffffffffffff81111561141457611413612d7a565b5b6040519080825280601f01601f1916602001820160405280156114465781602001600182028036833780820191505090505b509050600082602001820190505b6001156114a9578080600190039150507f3031323334353637383961626364656600000000000000000000000000000000600a86061a8153600a858161149d5761149c6133a7565b5b04945060008503611454575b819350505050919050565b80600a600084815260200190815260200160002090816114d4919061356d565b507ff8e1a15aba9398e019f0b49df1a4fde98ee17ae345cb5f6b5e2c27f5033e8ce7826040516115049190612b89565b60405180910390a15050565b6000600b60019054906101000a900473ffffffffffffffffffffffffffffffffffffffff16905081600b60016101000a81548173ffffffffffffffffffffffffffffffffffffffff021916908373ffffffffffffffffffffffffffffffffffffffff1602179055508173ffffffffffffffffffffffffffffffffffffffff168173ffffffffffffffffffffffffffffffffffffffff167f8be0079c531659141344cd1fd0a4f28419497f9722a3daafe3b4186f6b6457e060405160405180910390a35050565b6115de611387565b6001600b60006101000a81548160ff0219169083151502179055507f62e78cea01bee320cd4e420270b5ea74000d11b0c9f74754ebdbfc544b05a25861162261126d565b60405161162f9190612af3565b60405180910390a1565b600073ffffffffffffffffffffffffffffffffffffffff168273ffffffffffffffffffffffffffffffffffffffff16036116aa57816040517f5b08ba180000000000000000000000000000000000000000000000000000000081526004016116a19190612af3565b60405180910390fd5b80600560008573ffffffffffffffffffffffffffffffffffffffff1673ffffffffffffffffffffffffffffffffffffffff16815260200190815260200160002060008473ffffffffffffffffffffffffffffffffffffffff1673ffffffffffffffffffffffffffffffffffffffff16815260200190815260200160002060006101000a81548160ff0219169083151502179055508173ffffffffffffffffffffffffffffffffffffffff168373ffffffffffffffffffffffffffffffffffffffff167f17307eab39ab6107e8899845ad3d59bd9653f200f220920489ca2b5937696c318360405161179b9190612982565b60405180910390a3505050565b60008373ffffffffffffffffffffffffffffffffffffffff163b1115611952578273ffffffffffffffffffffffffffffffffffffffff1663150b7a02868685856040518563ffffffff1660e01b81526004016118079493929190613694565b6020604051808303816000875af192505050801561184357506040513d601f19601f8201168201806040525081019061184091906136f5565b60015b6118c7573d8060008114611873576040519150601f19603f3d011682016040523d82523d6000602084013e611878565b606091505b5060008151036118bf57836040517f64a0ae920000000000000000000000000000000000000000000000000000000081526004016118b69190612af3565b60405180910390fd5b805181602001fd5b63150b7a0260e01b7bffffffffffffffffffffffffffffffffffffffffffffffffffffffff1916817bffffffffffffffffffffffffffffffffffffffffffffffffffffffff19161461195057836040517f64a0ae920000000000000000000000000000000000000000000000000000000081526004016119479190612af3565b60405180910390fd5b505b5050505050565b6060611964826111a8565b506000600a6000848152602001908152602001600020805461198590612f97565b80601f01602080910402602001604051908101604052809291908181526020018280546119b190612f97565b80156119fe5780601f106119d3576101008083540402835291602001916119fe565b820191906000526020600020905b8154815290600101906020018083116119e157829003601f168201915b505050505090506000611a0f611ebd565b90506000815103611a24578192505050611a67565b600082511115611a59578082604051602001611a41929190613722565b60405160208183030381529060405292505050611a67565b611a6284611ed4565b925050505b919050565b60007f780e9d63000000000000000000000000000000000000000000000000000000007bffffffffffffffffffffffffffffffffffffffffffffffffffffffff1916827bffffffffffffffffffffffffffffffffffffffffffffffffffffffff19161480611adf5750611ade82611f3d565b5b9050919050565b60006002600083815260200190815260200160002060009054906101000a900473ffffffffffffffffffffffffffffffffffffffff169050919050565b8080611b5c5750600073ffffffffffffffffffffffffffffffffffffffff168273ffffffffffffffffffffffffffffffffffffffff1614155b15611c90576000611b6c846111a8565b9050600073ffffffffffffffffffffffffffffffffffffffff168373ffffffffffffffffffffffffffffffffffffffff1614158015611bd757508273ffffffffffffffffffffffffffffffffffffffff168173ffffffffffffffffffffffffffffffffffffffff1614155b8015611bea5750611be8818461102d565b155b15611c2c57826040517fa9fbf51f000000000000000000000000000000000000000000000000000000008152600401611c239190612af3565b60405180910390fd5b8115611c8e57838573ffffffffffffffffffffffffffffffffffffffff168273ffffffffffffffffffffffffffffffffffffffff167f8c5be1e5ebec7d5bd14f71427d1e84f3dd0314c0f7b2291e5b200ac8c7c3b92560405160405180910390a45b505b836004600085815260200190815260200160002060006101000a81548173ffffffffffffffffffffffffffffffffffffffff021916908373ffffffffffffffffffffffffffffffffffffffff16021790555050505050565b6000611cf2611387565b611cfd84848461201f565b90509392505050565b611d0e610b4c565b611d44576040517f8dfc202b00000000000000000000000000000000000000000000000000000000815260040160405180910390fd5b565b611d50838361213c565b611d65611d5b61126d565b60008585856117a8565b505050565b600080600090507a184f03e93ff9f4daa797ed6e38ed64bf6a1f0100000000000000008310611dc8577a184f03e93ff9f4daa797ed6e38ed64bf6a1f0100000000000000008381611dbe57611dbd6133a7565b5b0492506040810190505b6d04ee2d6d415b85acef81000000008310611e05576d04ee2d6d415b85acef81000000008381611dfb57611dfa6133a7565b5b0492506020810190505b662386f26fc100008310611e3457662386f26fc100008381611e2a57611e296133a7565b5b0492506010810190505b6305f5e1008310611e5d576305f5e1008381611e5357611e526133a7565b5b0492506008810190505b6127108310611e82576127108381611e7857611e776133a7565b5b0492506004810190505b60648310611ea55760648381611e9b57611e9a6133a7565b5b0492506002810190505b600a8310611eb4576001810190505b80915050919050565b606060405180602001604052806000815250905090565b6060611edf826111a8565b506000611eea611ebd565b90506000815111611f0a5760405180602001604052806000815250611f35565b80611f14846113e6565b604051602001611f25929190613722565b6040516020818303038152906040525b915050919050565b60007f80ac58cd000000000000000000000000000000000000000000000000000000007bffffffffffffffffffffffffffffffffffffffffffffffffffffffff1916827bffffffffffffffffffffffffffffffffffffffffffffffffffffffff1916148061200857507f5b5e139f000000000000000000000000000000000000000000000000000000007bffffffffffffffffffffffffffffffffffffffffffffffffffffffff1916827bffffffffffffffffffffffffffffffffffffffffffffffffffffffff1916145b80612018575061201782612235565b5b9050919050565b60008061202d85858561229f565b9050600073ffffffffffffffffffffffffffffffffffffffff168173ffffffffffffffffffffffffffffffffffffffff16036120715761206c846124b9565b6120b0565b8473ffffffffffffffffffffffffffffffffffffffff168173ffffffffffffffffffffffffffffffffffffffff16146120af576120ae8185612502565b5b5b600073ffffffffffffffffffffffffffffffffffffffff168573ffffffffffffffffffffffffffffffffffffffff16036120f2576120ed846125ed565b612131565b8473ffffffffffffffffffffffffffffffffffffffff168173ffffffffffffffffffffffffffffffffffffffff16146121305761212f85856126be565b5b5b809150509392505050565b600073ffffffffffffffffffffffffffffffffffffffff168273ffffffffffffffffffffffffffffffffffffffff16036121ae5760006040517f64a0ae920000000000000000000000000000000000000000000000000000000081526004016121a59190612af3565b60405180910390fd5b60006121bc83836000611287565b9050600073ffffffffffffffffffffffffffffffffffffffff168173ffffffffffffffffffffffffffffffffffffffff16146122305760006040517f73c6ac6e0000000000000000000000000000000000000000000000000000000081526004016122279190612af3565b60405180910390fd5b505050565b60007f01ffc9a7000000000000000000000000000000000000000000000000000000007bffffffffffffffffffffffffffffffffffffffffffffffffffffffff1916827bffffffffffffffffffffffffffffffffffffffffffffffffffffffff1916149050919050565b6000806122ab84611ae6565b9050600073ffffffffffffffffffffffffffffffffffffffff168373ffffffffffffffffffffffffffffffffffffffff16146122ed576122ec818486612749565b5b600073ffffffffffffffffffffffffffffffffffffffff168173ffffffffffffffffffffffffffffffffffffffff161461237e5761232f600085600080611b23565b6001600360008373ffffffffffffffffffffffffffffffffffffffff1673ffffffffffffffffffffffffffffffffffffffff168152602001908152602001600020600082825403925050819055505b600073ffffffffffffffffffffffffffffffffffffffff168573ffffffffffffffffffffffffffffffffffffffff1614612401576001600360008773ffffffffffffffffffffffffffffffffffffffff1673ffffffffffffffffffffffffffffffffffffffff168152602001908152602001600020600082825401925050819055505b846002600086815260200190815260200160002060006101000a81548173ffffffffffffffffffffffffffffffffffffffff021916908373ffffffffffffffffffffffffffffffffffffffff160217905550838573ffffffffffffffffffffffffffffffffffffffff168273ffffffffffffffffffffffffffffffffffffffff167fddf252ad1be2c89b69c2b068fc378daa952ba7f163c4a11628f55a4df523b3ef60405160405180910390a4809150509392505050565b6008805490506009600083815260200190815260200160002081905550600881908060018154018082558091505060019003906000526020600020016000909190919091505550565b600061250d83610c75565b90506000600760008481526020019081526020016000205490506000600660008673ffffffffffffffffffffffffffffffffffffffff1673ffffffffffffffffffffffffffffffffffffffff16815260200190815260200160002090508282146125b95760008160008581526020019081526020016000205490508082600085815260200190815260200160002081905550826007600083815260200190815260200160002081905550505b6007600085815260200190815260200160002060009055806000848152602001908152602001600020600090555050505050565b600060016008805490506126019190613746565b9050600060096000848152602001908152602001600020549050600060088381548110612631576126306130da565b5b906000526020600020015490508060088381548110612653576126526130da565b5b9060005260206000200181905550816009600083815260200190815260200160002081905550600960008581526020019081526020016000206000905560088054806126a2576126a161377a565b5b6001900381819060005260206000200160009055905550505050565b600060016126cb84610c75565b6126d59190613746565b905081600660008573ffffffffffffffffffffffffffffffffffffffff1673ffffffffffffffffffffffffffffffffffffffff168152602001908152602001600020600083815260200190815260200160002081905550806007600084815260200190815260200160002081905550505050565b61275483838361280d565b61280857600073ffffffffffffffffffffffffffffffffffffffff168373ffffffffffffffffffffffffffffffffffffffff16036127c957806040517f7e2732890000000000000000000000000000000000000000000000000000000081526004016127c09190612b89565b60405180910390fd5b81816040517f177e802f0000000000000000000000000000000000000000000000000000000081526004016127ff929190612fff565b60405180910390fd5b505050565b60008073ffffffffffffffffffffffffffffffffffffffff168373ffffffffffffffffffffffffffffffffffffffff16141580156128c557508273ffffffffffffffffffffffffffffffffffffffff168473ffffffffffffffffffffffffffffffffffffffff1614806128865750612885848461102d565b5b806128c457508273ffffffffffffffffffffffffffffffffffffffff166128ac83611230565b73ffffffffffffffffffffffffffffffffffffffff16145b5b90509392505050565b6000604051905090565b600080fd5b600080fd5b60007fffffffff0000000000000000000000000000000000000000000000000000000082169050919050565b612917816128e2565b811461292257600080fd5b50565b6000813590506129348161290e565b92915050565b6000602082840312156129505761294f6128d8565b5b600061295e84828501612925565b91505092915050565b60008115159050919050565b61297c81612967565b82525050565b60006020820190506129976000830184612973565b92915050565b600081519050919050565b600082825260208201905092915050565b60005b838110156129d75780820151818401526020810190506129bc565b60008484015250505050565b6000601f19601f8301169050919050565b60006129ff8261299d565b612a0981856129a8565b9350612a198185602086016129b9565b612a22816129e3565b840191505092915050565b60006020820190508181036000830152612a4781846129f4565b905092915050565b6000819050919050565b612a6281612a4f565b8114612a6d57600080fd5b50565b600081359050612a7f81612a59565b92915050565b600060208284031215612a9b57612a9a6128d8565b5b6000612aa984828501612a70565b91505092915050565b600073ffffffffffffffffffffffffffffffffffffffff82169050919050565b6000612add82612ab2565b9050919050565b612aed81612ad2565b82525050565b6000602082019050612b086000830184612ae4565b92915050565b612b1781612ad2565b8114612b2257600080fd5b50565b600081359050612b3481612b0e565b92915050565b60008060408385031215612b5157612b506128d8565b5b6000612b5f85828601612b25565b9250506020612b7085828601612a70565b9150509250929050565b612b8381612a4f565b82525050565b6000602082019050612b9e6000830184612b7a565b92915050565b600080600060608486031215612bbd57612bbc6128d8565b5b6000612bcb86828701612b25565b9350506020612bdc86828701612b25565b9250506040612bed86828701612a70565b9150509250925092565b600060208284031215612c0d57612c0c6128d8565b5b6000612c1b84828501612b25565b91505092915050565b600081519050919050565b600082825260208201905092915050565b6000819050602082019050919050565b612c5981612a4f565b82525050565b6000612c6b8383612c50565b60208301905092915050565b6000602082019050919050565b6000612c8f82612c24565b612c998185612c2f565b9350612ca483612c40565b8060005b83811015612cd5578151612cbc8882612c5f565b9750612cc783612c77565b925050600181019050612ca8565b5085935050505092915050565b60006020820190508181036000830152612cfc8184612c84565b905092915050565b612d0d81612967565b8114612d1857600080fd5b50565b600081359050612d2a81612d04565b92915050565b60008060408385031215612d4757612d466128d8565b5b6000612d5585828601612b25565b9250506020612d6685828601612d1b565b9150509250929050565b600080fd5b600080fd5b7f4e487b7100000000000000000000000000000000000000000000000000000000600052604160045260246000fd5b612db2826129e3565b810181811067ffffffffffffffff82111715612dd157612dd0612d7a565b5b80604052505050565b6000612de46128ce565b9050612df08282612da9565b919050565b600067ffffffffffffffff821115612e1057612e0f612d7a565b5b612e19826129e3565b9050602081019050919050565b82818337600083830152505050565b6000612e48612e4384612df5565b612dda565b905082815260208101848484011115612e6457612e63612d75565b5b612e6f848285612e26565b509392505050565b600082601f830112612e8c57612e8b612d70565b5b8135612e9c848260208601612e35565b91505092915050565b60008060008060808587031215612ebf57612ebe6128d8565b5b6000612ecd87828801612b25565b9450506020612ede87828801612b25565b9350506040612eef87828801612a70565b925050606085013567ffffffffffffffff811115612f1057612f0f6128dd565b5b612f1c87828801612e77565b91505092959194509250565b60008060408385031215612f3f57612f3e6128d8565b5b6000612f4d85828601612b25565b9250506020612f5e85828601612b25565b9150509250929050565b7f4e487b7100000000000000000000000000000000000000000000000000000000600052602260045260246000fd5b60006002820490506001821680612faf57607f821691505b602082108103612fc257612fc1612f68565b5b50919050565b6000606082019050612fdd6000830186612ae4565b612fea6020830185612b7a565b612ff76040830184612ae4565b949350505050565b60006040820190506130146000830185612ae4565b6130216020830184612b7a565b9392505050565b600081905092915050565b50565b6000613043600083613028565b915061304e82613033565b600082019050919050565b600061306482613036565b9150819050919050565b7f4661696c656420746f2073656e64204574686572000000000000000000000000600082015250565b60006130a46014836129a8565b91506130af8261306e565b602082019050919050565b600060208201905081810360008301526130d381613097565b9050919050565b7f4e487b7100000000000000000000000000000000000000000000000000000000600052603260045260246000fd5b7f4d617820737570706c7920726561636865640000000000000000000000000000600082015250565b600061313f6012836129a8565b915061314a82613109565b602082019050919050565b6000602082019050818103600083015261316e81613132565b9050919050565b7f496e73756666696369656e742062616c616e6365000000000000000000000000600082015250565b60006131ab6014836129a8565b91506131b682613175565b602082019050919050565b600060208201905081810360008301526131da8161319e565b9050919050565b7f4e487b7100000000000000000000000000000000000000000000000000000000600052601160045260246000fd5b600061321b82612a4f565b91507fffffffffffffffffffffffffffffffffffffffffffffffffffffffffffffffff820361324d5761324c6131e1565b5b600182019050919050565b600081905092915050565b60008190508160005260206000209050919050565b6000815461328581612f97565b61328f8186613258565b945060018216600081146132aa57600181146132bf576132f2565b60ff19831686528115158202860193506132f2565b6132c885613263565b60005b838110156132ea578154818901526001820191506020810190506132cb565b838801955050505b50505092915050565b60006133068261299d565b6133108185613258565b93506133208185602086016129b9565b80840191505092915050565b7f2e6a736f6e000000000000000000000000000000000000000000000000000000600082015250565b6000613362600583613258565b915061336d8261332c565b600582019050919050565b60006133848285613278565b915061339082846132fb565b915061339b82613355565b91508190509392505050565b7f4e487b7100000000000000000000000000000000000000000000000000000000600052601260045260246000fd5b60006020601f8301049050919050565b600082821b905092915050565b6000600883026134237fffffffffffffffffffffffffffffffffffffffffffffffffffffffffffffffff826133e6565b61342d86836133e6565b95508019841693508086168417925050509392505050565b6000819050919050565b600061346a61346561346084612a4f565b613445565b612a4f565b9050919050565b6000819050919050565b6134848361344f565b61349861349082613471565b8484546133f3565b825550505050565b600090565b6134ad6134a0565b6134b881848461347b565b505050565b5b818110156134dc576134d16000826134a5565b6001810190506134be565b5050565b601f821115613521576134f281613263565b6134fb846133d6565b8101602085101561350a578190505b61351e613516856133d6565b8301826134bd565b50505b505050565b600082821c905092915050565b600061354460001984600802613526565b1980831691505092915050565b600061355d8383613533565b9150826002028217905092915050565b6135768261299d565b67ffffffffffffffff81111561358f5761358e612d7a565b5b6135998254612f97565b6135a48282856134e0565b600060209050601f8311600181146135d757600084156135c5578287015190505b6135cf8582613551565b865550613637565b601f1984166135e586613263565b60005b8281101561360d578489015182556001820191506020850194506020810190506135e8565b8683101561362a5784890151613626601f891682613533565b8355505b6001600288020188555050505b505050505050565b600081519050919050565b600082825260208201905092915050565b60006136668261363f565b613670818561364a565b93506136808185602086016129b9565b613689816129e3565b840191505092915050565b60006080820190506136a96000830187612ae4565b6136b66020830186612ae4565b6136c36040830185612b7a565b81810360608301526136d5818461365b565b905095945050505050565b6000815190506136ef8161290e565b92915050565b60006020828403121561370b5761370a6128d8565b5b6000613719848285016136e0565b91505092915050565b600061372e82856132fb565b915061373a82846132fb565b91508190509392505050565b600061375182612a4f565b915061375c83612a4f565b9250828203905081811115613774576137736131e1565b5b92915050565b7f4e487b7100000000000000000000000000000000000000000000000000000000600052603160045260246000fdfea26469706673582212207e02b19be00e123786d8f3dd398ace54612a49ef8be1abf1bc298b698e0fa7eb64736f6c634300081c0033",
  "linkReferences": {},
  "deployedLinkReferences": {}
}